:100000000C9442020C941F060C945F020C945F0245
:100010000C945F020C945F020C945F020C94B80382
:100020000C945F020C945F020C945F020C945F02CC
:100030000C945F020C945F020C945F020C945F02BC
:100040000C945F020C945F020C945F020C945F02AC
:100050000C945F020C945F020C945F020C945F029C
:100060000C945F020C945F020403090442035300E2
:1000700070006100630065006D0061006E0020008B
:10008000530070006900660066002000680074007C
:10009000740070003A002F002F00730079006D008B
:1000A0006C0069006E006B002E0064006B001A0388
:1000B00053007000690066006600430068006F002E
:1000C0007200640065007200120110010000000857
:1000D000401CA30599000102000109022200010150
:1000E000008032090400000103010100092101011F
:1000F0000001223F0007058103080014272727007D
:10010000272700B4B45000A6A75000FC000001034C
:1001100001070100001A001C001800150000000B68
:100120000016000C0005000E001D0007000000086E
:100130000017006F007100290033003600000037FF
:10014000006700000049000000650042003D0034E7
:100150000070002C0009000A00190006003000138E
:100160000011000F001B000D00140010002F0004F0
:1001700000120073000000000000000000000000FA
:10018000000000000000000000000000000000006F
:10019000005300660028004F0051002A0046004C22
:1001A000004E0050004D002B004A00520047004B0B
:1001B00000390048000000000000000000000000BE
:1001C000000000000000000000000000000000002F
:1001D000000000570058005E005A005D00550063A3
:1001E000005B005C00590056005F00600054006135
:1001F0000062006D00000000000000000000000030
:1002000000000000000000000000000000000000EE
:100210000000000000220021007600200000007590
:10022000002D001F00310021023500380000002E93
:100230000074002C007100290033003600000037E4
:10024000006B00000049000000690000000000345D
:10025000006D001E00260025003000240030002222
:10026000022F00230024027700380225022F002EDF
:1002700002270073000000000000000000000000E2
:10028000000000000000000000000000000000006E
:100290000053006A0028004F0051002A0046004C1D
:1002A000004E0050004D002B004A00520047004B0A
:1002B00000390048000000000000000000000000BD
:1002C000000000000000000000000000000000002E
:1002D000000000570058005E005A005D00550063A2
:1002E000005B005C00590056005F00600054006134
:1002F0000062006D0000000000000000000000002F
:1003000000000000000000000000000000000000ED
:1003100000000000003E003D0000003C0000000026
:100320000000003B00000000000000000000000092
:1003300000000000006D0000000000000000000050
:1003400000670000000000000065000000000000E1
:100350000000003A00420041004500400000004417
:100360000000003F0000000000000043000000000B
:10037000000000730000000000000000000000000A
:10038000000000000000000000000000000000006D
:1003900000000066000000000000000000000000F7
:1003A000000000000000000000000000000000004D
:1003B000000000000000000000000000000000003D
:1003C000000000000000000000000000000000002D
:1003D000000000000000000000000000000000001D
:1003E000000000000000000000000000000000000D
:1003F0000000006D00000000000000000000000090
:1004000000000000000000000000000000000000EC
:10041000000000010204081020408005010906A127
:1004200001050719E029E7150025017501950881E7
:1004300002950175088103950575010508190129C3
:100440000591029501750391039506750815002520
:10045000650507190029658100C013011302130304
:100460000045464765666700202B2D2E303132331C
:1004700034353637383968006364696E6F70737568
:100480007858000011241FBECFEFD4E0DEBFCDBFEF
:1004900011E0A0E0B1E0E6E1F7E102C005900D92C5
:1004A000AC30B107D9F711E0ACE0B1E001C01D926A
:1004B000AA35B107E1F70E948E050C94890B0C94C4
:1004C0000000E9E6F0E0808182608083E89A8BE4B6
:1004D000809330018AE580932F0108951F93CF9375
:1004E000DF9360914001635067FDC4C080913D017E
:1004F000CCE0D0E0C81BD109CC5BDE4F80913C0141
:100500008D3209F0A4C0683009F0B2C083EC80934A
:1005100024018AE58093000110920C018881807685
:1005200041F0CE010E94CD03282F8F3F09F47EC0F9
:1005300084C09A8110922D018981882321F4109220
:100540002E0122E06CC0853019F49093410166C001
:10055000863009F04FC08B81813041F488EC90E007
:1005600090933F0180933E0122E140C0823041F4EC
:100570008AED90E090933F0180933E0122E236C0E5
:100580008330F9F48A81882341F488E690E09093DF
:100590003F0180933E0124E029C0813041F48CE684
:1005A00090E090933F0180933E0122E41FC082308F
:1005B000E1F48EEA90E090933F0180933E012AE1BE
:1005C00015C0813241F48CEE90E090933F0180930E
:1005D0003E0129E00BC0823241F48BE194E090931C
:1005E0003F0180933E012FE301C020E080E480932F
:1005F0000C0123C0883021F421E083E491E011C094
:10060000893019F49093430109C08A3011F421E034
:1006100006C08B3019F48BE48093300120E08DE22A
:1006200091E090933F0180933E0107C0888187FD50
:100630002E8180E880930C0106C08F81882319F4F5
:100640008E81821708F0822F8093010111C0809162
:100650000C0187FF0DC0CE010E9408048F3F21F4DA
:100660008EE18093000104C0882311F010920101F3
:10067000109240018091000184FF4AC080910101E5
:100680008F3F09F445C0182F893008F018E0811B0E
:10069000809301018091240198E8892780932401A7
:1006A000112341F120913E0130913F0180910C01D5
:1006B00086FF0DC0A5E2B1E080E090E0F901E80F0F
:1006C000F91FE491ED9301961817C1F708C0912F17
:1006D000D901E5E2F1E08D9181939150E1F711505C
:1006E000812F90E01F5F0196820F931F90933F012F
:1006F00080933E0185E291E0612F0E941B06612FED
:100700006C5F6C3019F08FEF8093010160930001F2
:1007100094E189B1857031F49150D9F7109241017B
:1007200010923B01DF91CF911F9108951F93DC013F
:10073000162F80912F0184FF07C08091300198E827
:1007400089278093300103C08AE580932F01912F80
:10075000E1E3F1E08D9181939150E1F781E391E044
:10076000612F0E941B061C5F10932F011F9108959B
:100770001F920F920FB60F9211248F938091110147
:10078000823028F0809111018150809311018F9166
:100790000F900FBE0F901F901895FC018BE191E018
:1007A00090933F0180933E0180818076803271F585
:1007B0008181813011F488E00895893049F486817F
:1007C0009781019719F581E0809317018FEF0895C4
:1007D000823019F483E291E013C08A3029F48381D6
:1007E0008093230180E00895833031F4838188234E
:1007F00069F41092090108958B3041F489E091E089
:1008000090933F0180933E0181E0089580E0089538
:10081000FC0180911701882329F0613019F480814F
:1008200080930D011092170181E0089588E0EBE1BB
:10083000F1E0DF011D928A95E9F780911901882383
:1008400039F08091160180931B011092190121C08B
:10085000E0910701F0910801849180931801982F8D
:10086000991F9927991F990F90931B01982F9F7794
:1008700090931D01882331F03196F0930801E093A5
:10088000070104C0109208011092070181E08093D3
:10089000190181E0089520910F013091100190E03D
:1008A0002115310541F0FC01EF77F070EE0FFF1FCD
:1008B000E20FF31F0AC08F779070880F991FE091A5
:1008C0000501F0910601E80FF91F25913491822F5F
:1008D0001092100110920F01253608F452C02337F0
:1008E00068F1209112018337F9F0E82FF0E0EE0F64
:1008F000FF1FED5DFF4F85919491909308018093C8
:100900000701809113012823209312018091150182
:10091000882309F063C083E191E0909306018093FE
:100920000501109214012BC083E192E09093100115
:1009300080930F0122602093120121C02D36A8F070
:100940008D56982F91709093150186958093140180
:10095000E82FF0E0EE0FFF1FE65AFB4F85919491D0
:1009600090930601809305010AC0E22FF0E0E25562
:10097000FC4FE491809112018E2B8093120180E054
:100980000895222359F188E0EBE1F1E0DF011D92A7
:100990008A95E9F720931D01332319F030931B0149
:1009A00004C08091120180931B0180911B018093F0
:1009B00016018091120190911301892380931201F5
:1009C00080911501882341F483E191E09093060121
:1009D000809305011092140181E0089580E008954C
:1009E0001F93182F662361F080911A01882309F460
:1009F0005FC080910B0180950E944B04282F59C045
:100A000060910B01462F50E0282F30E0C9018095FE
:100A1000909584239523892B59F081E080931A01C6
:100A2000612360930B018091020180930E0140C00D
:100A30004095509524233523232BD1F18091040137
:100A4000882339F080911A01811181E08823A1F077
:100A500002C01F3F89F480910E01813011F420E023
:100A600005C0862F80950E944B04282F10930B0100
:100A700010921A01222339F480910E01813011F075
:100A800020E00DC020E08091070190910801892BA2
:100A900031F480E694E0909308018093070110926E
:100AA0000E0180910401882321F010930B0101C0F5
:100AB00020E0822F1F9108951F9383B119B1107CFC
:100AC0008F73182B90910A019117B9F08091110141
:100AD000882329F480910301809311011BC0809128
:100AE00011018130B9F4812F60E00E94F004982F49
:100AF00010930A01109211010EC080910E018230F4
:100B000049F4892F61E00E94F004982F81E08093DE
:100B10000E0101C090E0892F1F910895EF92FF927E
:100B20000F931F932FE088E190E00FB6F894A895FB
:100B3000809360000FBE209360008FE385B914B8E6
:100B400088B987E087B98AEF8BB982E08AB9509A71
:100B500020E048EB5BE004C0A895CA010197F1F7DB
:100B60002150D1F7509888E388B914BC85E085BD41
:100B70008FE28093B30082E08093B00086E08093A0
:100B8000B100809170008260809370000E946102C9
:100B9000789400E0FF24EE24E39401C0F12EA895A0
:100BA0000E946E02002361F4809107019091080178
:100BB000892B19F00E94160402C00E945C05082FC0
:100BC000A89B16C0E5BA80910E01833028F0809171
:100BD0000E01815080930E0110912301112341F0E9
:100BE00084E08F1510F001E006C01F2D155001C0E4
:100BF0001F2D002399F280912F0184FFCFCF8BE12D
:100C000091E068E00E94960300E0C8CFA82FB92FBA
:100C100080E090E041E050EA609530E009C02D911D
:100C200082279795879510F084279527305EC8F323
:100C30006F5FA8F30895EADF8D939D930895CF9396
:100C4000CFB7CF93C395489BE9F7489B09C0489B12
:100C500007C0489B05C0489B03C0489B01C0A3C078
:100C6000DF93C0913D01DD27CC5BDE4F489B02C086
:100C7000DF91EBCF2F930F931F9309B12FEF00FB61
:100C800020F94F933F9319B14FEF012700FB21F952
:100C90003BE031C04E7F012F19B1216028C0102FD9
:100CA0004D7F2260000009B129C04B7F2460012FD5
:100CB000000019B12BC019B1477F28602AC04F7EB0
:100CC00009B120612CC04F7D19B120622FC04F7B2C
:100CD00009B1206432C0422709B149934FEF0000A7
:100CE000102710FB20F919B11570C9F1297F91F275
:100CF000012700FB21F909B1237F89F2315058F116
:100D0000102710FB22F919B1277E79F2012700FB89
:100D100023F92F7C81F209B1102710FB24F92F79D8
:100D200071F200C019B1012700FB25F92F7359F2A8
:100D300000C009B1102710FB26F9223040F200C094
:100D400019B1012700FB27F9243028F64F772068D6
:100D500019B10000F9CF11E01CBB002719C03B50AE
:100D60003195C31BD04011E01CBB0881033CF9F056
:100D70000B34E9F020913B011981110F1213EDCFD3
:100D80004A81441F093641F10D3211F0013E29F725
:100D9000009342013F914F911F910F912F91DF914D
:100DA000CCB3C0FD4FCFCF91CFBFCF91189520913D
:100DB0004201222379F310914001112369F5343067
:100DC0006AF13093400120933C0110913D013BE0DA
:100DD000311B30933D0122C0009140010130E4F409
:100DE0000AE54F7049F43091000134FD19C00093B9
:100DF0000001C4E2D1E018C030912F0134FD10C0D1
:100E000000932F01C0E3D1E00FC02795A8F4515003
:100E1000A9F4220F0000F9CF4AE503C042ED01C05A
:100E2000432FC4E1D0E032E01AB11560589A1AB9E4
:100E30000BB120E415E05F93012756E00BB927952D
:100E400020F4515021F4220FF9CF012756E0000081
:100E50003B5A0BB9D0F2279528F4515029F4220FB0
:100E60000000F9CF012756E027950BB920F4515027
:100E700021F4220FF9CF012756E0299133230BB932
:100E800021F60A7F10914101110FC651D0400BB9D4
:100E900011F010933B0111E01CBB01601AB11A7FE5
:100EA000402F4A7F5F9100C000C00BB91AB94BB9FF
:100EB00071CFABE0B0E0EFE5F7E00C945A0A5C01CB
:100EC0004B017A01FC0117821682838181FD08C0E3
:100ED0006FEF7FEF08C142E050E0E40EF51E04C062
:100EE0003E010894611C711CF501D380F401D3FC10
:100EF0008591D3FE81914F01882309F4F1C0853299
:100F000059F4D3FC6591D3FE61914F01653219F01C
:100F1000062F10E01BC085E290E02BC0002309F4EF
:100F2000DFC088E694E0602F70E00E94950A892B6C
:100F300039F4033211F4106103C00C3661F4106807
:100F4000F401D3FC0591D3FE01914F0117FFE6CFC9
:100F5000002309F4C5C081E694E0602F70E00E9490
:100F6000950A892B51F044E050E0E40EF51E8FE322
:100F700090E0B5010E94E20AB7CF033629F00337AB
:100F800079F00335F1F40BC087010E5F1F4FF701B5
:100F900080819181B5010E94E20A7801A5CF11609C
:100FA000F701C080D18004C090E0B5010E94E20A40
:100FB000F60110FD859110FF81916F018823A1F743
:100FC0008ACF043611F0093639F517FF08C0F7014A
:100FD000208131814281538184E090E00AC0F70191
:100FE000808191819C01442737FD4095542F82E0F8
:100FF00090E0E80EF91E1F7E57FF08C050954095FF
:10100000309521953F4F4F4F5F4F1064CA01B90192
:10101000A3012AE030E034C00037A9F0013730F4F2
:101020000835B1F00F3609F05BC006C0053739F05E
:10103000083709F055C008C028E030E00CC01F7E1A
:101040002AE030E008C01061146220E130E003C003
:10105000146020E132E017FF08C0F7016081718160
:101060008281938144E050E008C0F7018081918142
:10107000BC0180E090E042E050E0E40EF51EA301E8
:101080000E94280BD82ED618012F10E006FF05C0AD
:101090008DE290E0B5010E94E20A04FF15C0FE0156
:1010A000ED0DF11D8081803379F080E390E0B50192
:1010B0000E94E20A02FF08C000721070C801885A3C
:1010C0009F4FB5010E94E20ADA94F301ED0DF11D84
:1010D000808190E0B5010E94E20ADD20A9F704CFEB
:1010E000F50166817781CB012B96EEE00C94760AB0
:1010F000FC0120FD08C023FD05C022FF02C0738350
:101100006283518340830895EF92FF920F931F9360
:1011100044FF02C033E011C046FF02C034E00DC0FE
:10112000DB01FC01AA0FBB1FEE1FFF1F1094D1F7BC
:101130006A0F7B1F8E1F9F1F31E0660F771F881F6E
:10114000991F3150D1F77B018C01E20EF11C011D7A
:10115000111DA8019701B701CA011F910F91FF90BE
:10116000EF9008950F931F93CF93DF938C01C801E5
:101170000E94A00AEC0197FD08C00E948D0A892BED
:10118000B1F7CE01B8010E940E0BCE01DF91CF91D5
:101190001F910F910895A0E0B0E0E1EDF8E00C940C
:1011A0005E0AEC01C62E5A01122F0E94A00AAC0161
:1011B0008B3219F08D3251F41068CA9409F46DC065
:1011C000CE010E94A00AAC0197FD67C06DEFD62E3C
:1011D000D1228D2D807301F54033F1F4CA9409F4C6
:1011E00047C0CE010E94A00AAC0197FD41C082E039
:1011F000D82A483711F0483559F480E4D82ACA94DF
:10120000B9F1CE010E94A00AAC0199232CF430C0A0
:10121000D6FC02C080E1D82AEE24FF248701242FC7
:101220002053283088F0D4FC09C02A3068F0D6FE5C
:1012300005C02F7D822F8151863028F0CA01BE0162
:101240000E940E0B12C02750C801B7014D2D0E94FD
:1012500084087B018C0182E0D82ACA9461F0CE0117
:101260000E94A00AAC0197FFDACFD1FC04C015C0E0
:10127000EE24FF248701D7FE08C010950095F09456
:10128000E094E11CF11C011D111DC501B801A7016D
:101290002D2D0E94780881E001C080E0CDB7DEB737
:1012A000EAE00C947A0AA0E0B0E0E9E5F9E00C94F9
:1012B0005A0A5C016B013A01FC01178216828824EC
:1012C000DCC0812F90E00E948D0A892B21F0C5019E
:1012D0000E94B208D2C0153249F4F601F3FC6591C0
:1012E000F3FE61916F01653269F415E2C5010E9458
:1012F000A00A97FDCEC0181709F4BFC0B5010E941F
:101300000E0BCCC06A3219F0162F00E006C0F3FCB9
:101310001591F3FE11916F0101E099240FC0026055
:10132000692D70E080E090E040E20E948408962EF3
:10133000F601F3FC1591F3FE11916F01212F20535B
:101340002A3068F301FD03C099249A9403C09920C0
:1013500009F4A4C0183621F01C3691F4F6010AC035
:10136000F601F3FC6591F3FE6191683611F0162FDA
:1013700006C008600460F3FC1591F3FE11916F0143
:10138000112309F48BC088E794E0612F70E00E947C
:10139000950A892B09F482C0802F00FF03C0EE2438
:1013A000FF2407C0F301E080F18022E030E0620E0C
:1013B000731E1E3651F4F5014681578160E070E0DE
:1013C000C701202F0E94780858C0133691F481FD80
:1013D00002C099249394C5010E94A00A97FD59C0A8
:1013E000E114F10419F0F70181937F019A9499F7C0
:1013F00042C0C5010E94B20897FD4BC01F3659F18B
:10140000103728F4143629F1193639F527C0133767
:1014100019F0153711F51DC0C5010E94A00AEC0195
:1014200097FD11C00E948D0A892B29F0CE01B501CC
:101430000E940E0B08C0E114F10419F0F701C193EA
:101440007F019A9449F7E114F104A9F0F7011082A1
:1014500012C0006203C0006101C00064C501692DB3
:10146000A701202F0E94CB08882329F4F50183814E
:10147000807379F413C000FF8394F501F380F601C3
:10148000F3FC1591F3FE11916F01112309F019CFAF
:1014900005C0882019F42FEF3FEF02C0282D30E05F
:1014A000C901CDB7DEB7EEE00C94760A2F923F92D9
:1014B0004F925F926F927F928F929F92AF92BF9264
:1014C000CF92DF92EF92FF920F931F93CF93DF9310
:1014D000CDB7DEB7CA1BDB0B0FB6F894DEBF0FBE6D
:1014E000CDBF09942A88398848885F846E847D84BA
:1014F0008C849B84AA84B984C884DF80EE80FD80BC
:101500000C811B81AA81B981CE0FD11D0FB6F89431
:10151000DEBF0FBECDBFED0108959111F7C080323F
:1015200019F089508550D0F70895FC0105900616F2
:1015300021F00020D9F7C00108953197CF01089517
:10154000CF93DF93EC014B8140FF1AC046FF0AC0E6
:101550004F7B4B838E819F8101969F838E838A81EF
:10156000282F2BC042FF13C0E881F9818081282FEA
:10157000332727FD30952115310529F440624B832F
:101580002FEF3FEF1BC03196F983E88311C0EA8546
:10159000FB85CE0109959C0197FF0AC09B812F5FB7
:1015A0003F4F11F080E201C080E1892B8B83E8CFAF
:1015B0008E819F8101969F838E8330E0C901DF91E8
:1015C000CF9108950F931F93CF93DF938C01EB017D
:1015D0008B8181FF1BC082FF0DC02E813F818C81DA
:1015E0009D812817390764F4E881F9810193F98313
:1015F000E88306C0E885F985802F0995892B31F4A9
:101600008E819F8101969F838E8302C00FEF1FEF13
:10161000C801DF91CF911F910F9108959C01FB01AB
:10162000838180FF11C086FD0FC09FEF2F3F3907D8
:1016300059F0228380648F7D83838681978101970F
:101640009783868330E002C02FEF3FEFC9010895F2
:10165000FA01AA27283051F1203181F1E8946F93E3
:101660006E7F6E5F7F4F8F4F9F4FAF4FB1E03ED089
:10167000B4E03CD0670F781F891F9A1FA11D680F27
:10168000791F8A1F911DA11D6A0F711D811D911D5A
:10169000A11D20D009F468943F912AE0269F1124CF
:1016A0003019305D3193DEF6CF010895462F477033
:1016B000405D4193B3E00FD0C9F7F6CF462F4F708E
:1016C000405D4A3318F0495D31FD4052419302D0EC
:1016D000A9F7EACFB4E0A695979587957795679592
:1016E000BA95C9F700976105710508959B01AC0192
:1016F0000A2E06945795479537952795BA95C9F7B9
:10170000620F731F841F951FA01D089599278827B6
:061710000895F894FFCFDC
:0C1716005AFF190A011301600401FFFFD3
:00000001FF
