:100000000C9431020C94F5050C944E020C944E02A3
:100010000C944E020C944E020C944E020C94AF03BE
:100020000C944E020C944E020C944E020C944E0210
:100030000C944E020C944E020C944E020C944E0200
:100040000C944E020C944E020C944E020C944E02F0
:100050000C944E020C944E020C944E020C944E02E0
:100060000C944E020C944E02040309044203530004
:1000700070006100630065006D0061006E0020008B
:10008000530070006900660066002000680074007C
:10009000740070003A002F002F00730079006D008B
:1000A0006C0069006E006B002E0064006B001A0388
:1000B00053007000690066006600430068006F002E
:1000C0007200640065007200120110010000000857
:1000D000401CA30598000102000109022200010151
:1000E000008032090400000103010100092101011F
:1000F0000001223F0007058103080014272727007D
:10010000272700B4B45000A6A75000FC000001034C
:1001100001070100001A001C001800150000000B68
:100120000016000C0005000E001D0007000000086E
:100130000017006F007100290033003600000037FF
:10014000006700000049000000650042003D0034E7
:100150000070002C0009000A00190006003000138E
:100160000011000F001B000D00140010002F0004F0
:1001700000120073000000000000000000000000FA
:10018000000000000000000000000000000000006F
:10019000005300660028004F0051002A0046004C22
:1001A000004E0050004D002B004A00520047004B0B
:1001B00000390048000000000000000000000000BE
:1001C000000000000000000000000000000000002F
:1001D000000000570058005E005A005D00550063A3
:1001E000005B005C00590056005F00600054006135
:1001F0000062006D00000000000000000000000030
:1002000000000000000000000000000000000000EE
:100210000000000000220021007600200000007590
:10022000002D001F00310021023500380000002E93
:100230000074002C007100290033003600000037E4
:10024000006B00000049000000690000000000345D
:10025000006D001E00260025003000240030002222
:10026000022F00230024027700380225022F002EDF
:1002700002270073000000000000000000000000E2
:10028000000000000000000000000000000000006E
:100290000053006A0028004F0051002A0046004C1D
:1002A000004E0050004D002B004A00520047004B0A
:1002B00000390048000000000000000000000000BD
:1002C000000000000000000000000000000000002E
:1002D000000000570058005E005A005D00550063A2
:1002E000005B005C00590056005F00600054006134
:1002F0000062006D0000000000000000000000002F
:1003000000000000000000000000000000000000ED
:1003100000000000003E003D0000003C0000000026
:100320000000003B00000000000000000000000092
:1003300000000000006D0000000000000000000050
:1003400000670000000000000065000000000000E1
:100350000000003A00420041004500400000004417
:100360000000003F0000000000000043000000000B
:10037000000000730000000000000000000000000A
:10038000000000000000000000000000000000006D
:1003900000000066000000000000000000000000F7
:1003A000000000000000000000000000000000004D
:1003B000000000000000000000000000000000003D
:1003C000000000000000000000000000000000002D
:1003D000000000000000000000000000000000001D
:1003E000000000000000000000000000000000000D
:1003F0000000006D00000000000000000000000090
:1004000000000000000000000000000000000000EC
:10041000000000010204081020408005010906A127
:1004200001050719E029E7150025017501950881E7
:1004300002950175088103950575010508190129C3
:100440000591029501750391039506750815002520
:10045000650507190029658100C013011302130304
:10046000000011241FBECFEFD4E0DEBFCDBF11E0EE
:10047000A0E0B1E0E2EEF7E102C005900D92AE30EF
:10048000B107D9F711E0AEE0B1E001C01D92AA3585
:10049000B107E1F70E9467050C94F00B0C94000083
:1004A000E9E6F0E0808183608083E89A83EC8093C2
:1004B000300108950F931F93CF93DF936091400114
:1004C00016160CF0C9C0635080913D01C0E5D1E023
:1004D000C81BD10980913C018D3209F0A0C08AE58A
:1004E00080930101683009F0AFC08881807609F0FF
:1004F00082C02EE231E010922E018981882341F4DE
:1005000010922F0130933F0120933E0192E07EC074
:10051000853021F48A8180934101F4C0863009F04E
:100520004CC08B81813041F488EC90E090933F0186
:1005300080933E0192E1E9C0823041F48AED90E07F
:1005400090933F0180933E0192E2DFC0833001F53A
:100550008A81882341F488E690E090933F0180935C
:100560003E0194E0D2C0813041F48CE690E090935B
:100570003F0180933E0192E4C8C0823009F0C4C0BC
:100580008EEA90E090933F0180933E019AE1BDC0D6
:10059000813241F48CEE90E090933F0180933E01D4
:1005A00099E0B3C0823209F0AFC08BE194E0909340
:1005B0003F0180933E019FE3A8C0883039F483E473
:1005C00091E090933F0180933E010CC0893021F46B
:1005D0008A818093430196C08A3031F430933F0181
:1005E00020933E0191E012C08B3009F08BC083EC68
:1005F0008093300187C0CE010E94C403982F8F3FA3
:1006000029F4888187FF1AC09E8118C020E88F8155
:100610008823E1F48E818917C8F4982F17C0809140
:100620000E0187FD11C0CE010E9404048F3F41F4EA
:10063000809300018EE1809301019FEF20E006C0CE
:100640008823D9F390E0FACF90E020E820930E01C0
:1006500090930001109240018091010184FF47C0F6
:10066000809100018F3F09F442C0682F893008F063
:1006700068E0861B8093000180910E0180FF02C01C
:1006800003EC01C00BE48F5F80930E0120913E01CB
:1006900030913F0186FD05C0962FF901A6E2B1E039
:1006A0000DC0962FF901A6E2B1E003C084918D93AD
:1006B00031969150D8F704C081918D939150E0F715
:1006C000C901860F911D90933F0180933E017727CA
:1006D000162F86E291E00E94F105183018F48FEF92
:1006E00080930001009325011C5F109301019AE0A3
:1006F00089B1857061F49150D9F71092410110923F
:100700003B0105C090E082CF90E020EC80CFDF91EC
:10071000CF911F910F9108951F93DC01162F8091A7
:10072000020184FF07C08091300198E889278093F7
:10073000300103C08AE580930201912FE1E3F1E0EB
:1007400002C08D9181939150E0F7612F81E391E098
:100750000E94F1051C5F109302011F9108951F92E2
:100760000F920FB60F9211248F9380911301823054
:1007700028F0809113018150809313018F910F9085
:100780000FBE0F901F901895FC018CE191E09093A3
:100790003F0180933E0180818076803291F5818196
:1007A000813019F488E090E00895893051F4868111
:1007B0009781019731F581E0809318018FEF90E0E8
:1007C0000895823019F484E291E014C08A3021F453
:1007D00083818093240107C0833041F4838188237F
:1007E00081F410920A0180E090E008958B3049F482
:1007F0008AE091E090933F0180933E0181E090E098
:10080000089580E090E00895FC018091180188230C
:1008100029F0613019F4808180930F011092180142
:1008200081E090E0089588E0ECE1F1E011928A9592
:10083000E9F780911A01882319F010921A0121C05A
:10084000E0910801F0910901849180931901982F9A
:10085000991F9927991F990F90931C01982F9F77A3
:1008600090931E01882331F03196F0930901E093B3
:10087000080104C0109209011092080181E08093E0
:100880001A0181E090E0089598E0ECE1F1E0119226
:100890009A95E9F7209111013091120199272115BC
:1008A000310541F0FC01EF77F070EE0FFF1FE20F12
:1008B000F31F0BC0FC01EF77F070EE0FFF1F80916C
:1008C000060190910701E80FF91F85919491E82F97
:1008D0001092120110921101853608F43AC0833744
:1008E000C0F0833761F0FF27EE0FFF1FED5DFF4F74
:1008F0008591949190930901809308013EC083E112
:1009000092E0909312018093110180911401826012
:100910001DC08D36A0F0ED568E2F8170809317018B
:10092000E695E0931601FF27EE0FFF1FE65AFB4FF7
:100930008591949190930701809306012AC0FF2727
:10094000E255FC4FE491809114018E2B80931401A9
:1009500020C08823F1F080931E01892F99278823D6
:1009600019F080931C0115C08091140180931C0123
:100970009091150189238093140180911701882398
:1009800041F483E191E09093070180930601109276
:10099000160181E090E008951F93182F662361F0FF
:1009A00080911B01882309F45AC080910C01809525
:1009B0000E944404282F54C060910C01262F332735
:1009C000482F5527CA018095909582239323892B20
:1009D00059F081E080931B01612360930C018091A9
:1009E0000301809310013BC02095309524233523CB
:1009F000232BA9F180910501882331F080911B01FF
:100A0000882329F081E003C01F3F19F404C0882324
:100A100011F420E00BC0862F80950E944404282FFB
:100A200010930C0110921B01882321F48091100176
:100A3000813061F48091080190910901892B31F492
:100A400080E694E0909309018093080110921001D0
:100A500080910501882321F010930C0101C020E052
:100A6000822F99271F9108951F9313B189B11F7386
:100A7000807C182B90910B019117B9F08091130194
:100A8000882329F480910401809313011BC0809175
:100A900013018130B9F460E0812F0E94CC04982FBB
:100AA00010930B01109213010EC08091100182303F
:100AB00049F461E0892F0E94CC04982F81E0809353
:100AC000100101C090E0892F99271F9108950F937D
:100AD0001F93CF93DF93CDB7DEB721970FB6F8946E
:100AE000DEBF0FBECDBF88E190E02FE00FB6F894D7
:100AF000A895809360000FBE209360008FE385B9B6
:100B000014B888E388B997E097B98AEF8BB99AB996
:100B10008CE28A95F1F792E09AB914BC85E085BD24
:100B20008FE28093B3009093B00086E08093B10091
:100B3000809170008260809370000E9450027894CF
:100B400090E000E002C0102F012FA89599830E9429
:100B50005A029981992361F48091080190910901C9
:100B6000892B19F00E94130402C00E943405982FAB
:100B7000A89B14C081E085BB80911001833028F0D0
:100B80008091100181508093100110912401112354
:100B900029F0053010F491E004C00550992399F232
:100BA000102F8091020184FFCFCF68E08CE191E0AB
:100BB0000E948C0390E0C8CFA82FB92F80E090E06E
:100BC00041E050EA60956F5F58F42D9138EF82272D
:100BD0009795879510F0842795273F5FC8F3F3CF4B
:100BE0000895EADF8D939D930895CF93CFB7CF9368
:100BF000489BFECF489B09C0489B07C0489B05C047
:100C0000489B03C0489B01C0A3C0DF93C0913D0136
:100C1000DD27CC5BDE4F489B02C0DF91EBCF2F93EB
:100C20000F931F9309B12FEF00FB20F94F933F93D0
:100C300019B14FEF012700FB21F93BE031C04E7F96
:100C4000012F19B1216028C0102F4D7F22600000B4
:100C500009B129C04B7F2460012F000019B12BC0BE
:100C600019B1477F28602AC04F7E09B120612CC08E
:100C70004F7D19B120622FC04F7B09B1206432C073
:100C8000422709B149934FEF0000102710FB20F9CC
:100C900019B11570C9F1297F91F2012700FB21F9E3
:100CA00009B1237F89F2315058F1102710FB22F946
:100CB00019B1277E79F2012700FB23F92F7C81F2FD
:100CC00009B1102710FB24F92F7971F200C019B176
:100CD000012700FB25F92F7359F200C009B1102735
:100CE00010FB26F9223040F200C019B1012700FBA9
:100CF00027F9243028F64F77206819B10000F9CF82
:100D000011E01CBB002719C03B503195C31BD040DC
:100D100011E01CBB0881033CF9F00B34E9F0209191
:100D20003B011981110F1213EDCF4A81441F09367F
:100D300041F10D3211F0013E29F7009342013F913C
:100D40004F911F910F912F91DF91CCB3C0FD50CFE8
:100D5000CF91CFBFCF91189500914201002379F335
:100D6000109140011123A1F53430A2F130934001DC
:100D700000933C0110913D013BE0311B30933D015C
:100D800029C00091400101301CF50AE54F7049F47B
:100D90003091010134FD20C000930101C5E2D1E092
:100DA0001FC03091020134FD17C000930201C0E35F
:100DB000D1E016C0052710E00BB91FC0052722C0DF
:100DC000052727C005272CC0052710E00BB933C025
:100DD0004AE503C042ED01C0432FC4E1D0E032E058
:100DE0001AB11560589A0BB11AB95F9355E020E813
:100DF00020FF05270BB9279517951C3FD8F620FF34
:100E0000052727950BB917951C3FC0F620FF05272E
:100E1000279517950BB91C3F98F620FF05272795B6
:100E200017951C3F0BB970F600C0499120FF0527AC
:100E30000BB9279517951C3F38F620FF05272795F6
:100E40000BB917951C3F38F520FF052727951795F7
:100E50000BB91C3F10F520FF0527279517951C3F60
:100E60000BB9E8F4242F3A9519F60A7F5F910BB974
:100E700010914101110FC651D04011F010933B0168
:100E800011E01CBB01601AB11A7F402F4A7F0BB9D9
:100E90001AB94BB954CF0527D3CF0527D8CF05278B
:100EA000DDCF2F923F924F925F926F927F928F92FF
:100EB0009F92AF92BF92CF92DF92EF92FF920F93E9
:100EC0001F93CF93DF93CDB7DEB761970FB6F8943A
:100ED000DEBF0FBECDBF1C01798B688B5A01FC01B0
:100EE00017821682838181FD03C08FEF9FEF66C159
:100EF000442450C1242D332720FF38C1852D805331
:100F00008A3008F442C1F7E6F51554F185E6581623
:100F10000CF04DC093E5591609F461C09515ACF07D
:100F2000EBE25E1609F431C1E5154CF0F0E25F1614
:100F300009F42BC123E2521609F010C126C1852DF8
:100F40008D52823008F00AC120C183E6581691F113
:100F500085150CF44FC098E5591609F0FFC021C063
:100F6000E0E75E16D1F0E51564F0FCE65F16E1F00F
:100F70008FE6581609F462C099E6591609F0EEC0DA
:100F800039C0E5E75E1609F45BC0F8E75F1649F083
:100F900023E7521609F0E2C014C038E7532E80E16F
:100FA0004EC090E19F874CC0E4E04E2AEEC09FE324
:100FB000C92E91C0F501C08022E030E0A20EB31E20
:100FC0008AC085010E5F1F4FF501C080D180F601F8
:100FD00001900020E9F73197EC19EF87EDC085010A
:100FE0000E5F1F4FF501C080D180C6010E94F80A34
:100FF0008F87E2C022FF08C0F50180819181A28124
:10100000B38124E030E009C0F50180819181AA27F5
:1010100097FDA095BA2F22E030E0A20EB31E6C011E
:101020007D01B7FF22C032E0432AF094E094D094CF
:10103000C094C11CD11CE11CF11C17C088E08F8733
:1010400022FF08C0F50180819181A281B38124E053
:1010500030E007C0F50180819181AA27BB2722E0FB
:1010600030E0A20EB31E6C017D0187017601CE0136
:1010700001969E878D879F85692E772488249924E1
:10108000C801B701A40193010E94AC0B6A301CF0A7
:10109000650D615201C0605DED85FE856193FE873F
:1010A000ED87C801B701A40193010E94AC0B79013F
:1010B0008A01211531054105510511F7CC24DD24A4
:1010C000760141FE05C0B1018DE290E00E94440B23
:1010D000F3E65F1631F4B1018C2D992787FD9095C9
:1010E00042C023E7521691F446011F8509C0F4015E
:1010F00081914F01B101992787FD90950E94440B82
:101100001150A8F72FEF2F8744243FC033E5531623
:1011100019F00D851E851AC086019F8408C0F8014C
:101120008491B10199270E94440B0F5F1F4F9A943D
:10113000FFEF9F16A1F7FF87E7CFF80182918F019C
:10114000B101992787FD90950E94440BCE0101962D
:101150000817190791F71E870D87D6CFB101852D86
:10116000992787FD90950E94440BCECFF5E25F163C
:1011700029F42AE02F8781E0482E07C0B101852D90
:10118000992787FD90950E94440B8889998901963B
:10119000998B888BF101838183FF04C0E889F989E9
:1011A000549003C0E889F9895080552009F0A2CEF7
:1011B000F1018681978102C0580193CF61960FB6E5
:1011C000F894DEBF0FBECDBFDF91CF911F910F917D
:1011D000FF90EF90DF90CF90BF90AF909F908F9057
:1011E0007F906F905F904F903F902F9008952F9237
:1011F0003F924F925F926F927F928F929F92AF92A7
:10120000BF92CF92DF92EF92FF920F931F93CF93F3
:10121000DF93CDB7DEB729970FB6F894DEBF0FBEC8
:10122000CDBF2C01798768874A01FC01178216829D
:10123000838180FD05C02FEF3FEF3C832B83BDC131
:101240001E821D828FEF9FEF9C838B836624772401
:101250001A821982222485C120FE71C1853219F4B7
:101260009EEF292278C1992787FD90950E94DD0B7A
:10127000382EACE68A1769F1A817A4F0B4E68B17EC
:1012800009F474C0B8172CF0E3E68E1709F03DC1DD
:1012900023C0F8E68F1709F45EC129E6821709F02A
:1012A00034C164C033E7831751F138174CF08FE62F
:1012B000381609F452C090E7391609F026C152C019
:1012C000A5E78A1709F450C0B8E78B1709F01DC1CC
:1012D00049C0E4E02E2A3FC1D4010D911C91C20106
:1012E0000E94010B3C01BFEF8F3F9B0709F449C1EE
:1012F000E2E0F0E08E0E9F1ED8018D9306C18401BE
:101300000E5F1F4FF401E080F180C2010E94010BCB
:101310003C010E94CE0B892BC1F7FFEF6F16FFEF48
:101320007F0661F42EC1C3010E94CE0B892B31F0E0
:101330005701B201C3010E94710B0BC0D7016D921E
:101340007D01C2010E94010B3C018F5F9F4F59F745
:101350005701F50110824801D8C0E2E02E2AF8E0DA
:10136000FF8304C020E12F8332E0232AC2010E94C0
:10137000010B3C010E94CE0B892BC1F78FEF681641
:101380008FEF780609F4FBC0862D8D3219F08B3271
:1013900059F402C098E0292AC2010E94010B3C01C5
:1013A0008F5F9F4F09F4EBC0B0E36B1691F5AA2451
:1013B000BB246501C2010E94010B3C01EFEF8F3F8E
:1013C0009E0709F475C00E94DD0B8837E9F4FFE63B
:1013D0003F1631F024E6321619F035E7331629F4BA
:1013E000B201C3010E94710B63C0C2010E94010BD4
:1013F0003C018FEF68168FEF780619F490E19F8318
:1014000057C0A0E1AF8305C0B9E63B1611F4E8E090
:10141000EF83EE24FF248701C3010E94DD0B20ED42
:10142000C22E2FEFD22EC80ED91EFAE0CF16D1044D
:101430003CF0C601C19762F029ED3FEFC20ED31E0A
:10144000D7FC06C03F81832F9927C816D9063CF0E8
:1014500057016801B201C3010E94710B20C08F8146
:10146000282F332744275527C801B7010E948D0B29
:101470007B018C01C601AA2797FDA095BA2FE80E23
:10148000F91E0A1F1B1FC2010E94010B3C019FEFA6
:1014900069169FEF790609F0BFCF5701680123FE57
:1014A00007C0AA24BB246501AE18BF08C00AD10A30
:1014B000222D3327C90186709070069741F4D4011C
:1014C000ED91FC91A082B182C282D38207C021FF3C
:1014D0000AC0D401ED91FC91B182A082E2E0F0E07B
:1014E0008E0E9F1E12C0C401029622FF08C0D401B6
:1014F000ED91FC91A082B182C282D38205C0D40159
:10150000ED91FC91B182A0824C01F201868197811C
:1015100029813A812817390744F48D819E810196EB
:101520009E838D831C821B8208C09EE6391639F586
:10153000AFEF6A16AFEF7A0611F122240CC08532A4
:1015400051F4F2010680F781E02DFA83E983FAE095
:10155000FF8381E0282E288539852F5F3F4F39870B
:101560002887F201838183FF04C0E885F98584918F
:1015700003C0A885B9858C91882309F06DCE20FE23
:101580000FC0F2018681978129813A812817390796
:101590003CF48D819E8101969E838D831C821B82EB
:1015A0009FEF69169FEF790621F4AD81BE81AB2BC9
:1015B00021F0ED81FE81FC83EB838B819C81299658
:1015C0000FB6F894DEBF0FBECDBFDF91CF911F9154
:1015D0000F91FF90EF90DF90CF90BF90AF909F90D2
:1015E0008F907F906F905F904F903F902F900895D5
:1015F000FC0105900020E9F7809590958E0F9F1FC4
:101600000895CF93DF93EC012B81822F992780FFE0
:1016100015C086FF0AC02F7B2B838E819F81019688
:101620009F838E838A8199272CC082FF12C0E88114
:10163000F9818081882329F420622B838FEF9FEF2B
:1016400020C0282F332727FD30953196F983E88372
:1016500011C0EA85FB85CE0109959C0197FF0AC060
:101660008B812F5F3F4F11F490E101C090E2892BF5
:101670008B83E4CF8E819F8101969F838E83822FFF
:101680009927DF91CF9108950F931F93CF93DF9305
:101690008C01EB018B81992781FF1BC082FF0DC05C
:1016A0002E813F818C819D812817390764F4E88160
:1016B000F9810193F983E88306C0E885F985802FD5
:1016C0000995892B31F48E819F8101969F838E83AA
:1016D00002C00FEF1FEFC801DF91CF911F910F9153
:1016E0000895AC01FB012381822F992780FF12C04E
:1016F00086FD10C08FEF4F3F580761F04283206492
:101700002F7D238386819781019797838683842FFA
:10171000992708958FEF9FEF0895629FD001739FDF
:10172000F001829FE00DF11D649FE00DF11D929F7D
:10173000F00D839FF00D749FF00D659FF00D9927BC
:10174000729FB00DE11DF91F639FB00DE11DF91FE0
:10175000BD01CF0111240895A1E21A2EAA1BBB1BC3
:10176000FD010DC0AA1FBB1FEE1FFF1FA217B3076D
:10177000E407F50720F0A21BB30BE40BF50B661F83
:10178000771F881F991F1A9469F760957095809547
:1017900090959B01AC01BD01CF010895911113C03B
:1017A000803251F08A3041F08C3031F08D3021F0B0
:1017B000893011F08B3099F708958F9309D08F916C
:1017C00009F08062089599278827089585FDFBCF49
:1017D00080629111F8CF8136ECF38B37DCF70895F6
:0217E000FFCF39
:0E17E200FF5A5A190A011301600401FFFF00AB
:00000001FF
