:100000000C9442020C9435060C945F020C945F022F
:100010000C945F020C945F020C945F020C94CE036C
:100020000C945F020C945F020C945F020C945F02CC
:100030000C945F020C945F020C945F020C945F02BC
:100040000C945F020C945F020C945F020C945F02AC
:100050000C945F020C945F020C945F020C945F029C
:100060000C945F020C945F020403090442035300E2
:1000700070006100630065006D0061006E0020008B
:10008000530070006900660066002000680074007C
:10009000740070003A002F002F00730079006D008B
:1000A0006C0069006E006B002E0064006B001A0388
:1000B00053007000690066006600430068006F002E
:1000C0007200640065007200120110010000000857
:1000D000401CA30598000102000109022200010151
:1000E000008032090400000103010100092101011F
:1000F0000001223F0007058103080014272727007D
:10010000272700B4B45000A6A75000FC000001034C
:1001100001070100001A001C001800150000000B68
:100120000016000C0005000E001D0007000000086E
:100130000017006F007100290033003600000037FF
:10014000006700000049000000650042003D0034E7
:100150000070002C0009000A00190006003000138E
:100160000011000F001B000D00140010002F0004F0
:1001700000120073000000000000000000000000FA
:10018000000000000000000000000000000000006F
:10019000005300660028004F0051002A0046004C22
:1001A000004E0050004D002B004A00520047004B0B
:1001B00000390048000000000000000000000000BE
:1001C000000000000000000000000000000000002F
:1001D000000000570058005E005A005D00550063A3
:1001E000005B005C00590056005F00600054006135
:1001F0000062006D00000000000000000000000030
:1002000000000000000000000000000000000000EE
:100210000000000000220021007600200000007590
:10022000002D001F00310021023500380000002E93
:100230000074002C007100290033003600000037E4
:10024000006B00000049000000690000000000345D
:10025000006D001E00260025003000240030002222
:10026000022F00230024027700380225022F002EDF
:1002700002270073000000000000000000000000E2
:10028000000000000000000000000000000000006E
:100290000053006A0028004F0051002A0046004C1D
:1002A000004E0050004D002B004A00520047004B0A
:1002B00000390048000000000000000000000000BD
:1002C000000000000000000000000000000000002E
:1002D000000000570058005E005A005D00550063A2
:1002E000005B005C00590056005F00600054006134
:1002F0000062006D0000000000000000000000002F
:1003000000000000000000000000000000000000ED
:1003100000000000003E003D0000003C0000000026
:100320000000003B00000000000000000000000092
:1003300000000000006D0000000000000000000050
:1003400000670000000000000065000000000000E1
:100350000000003A00420041004500400000004417
:100360000000003F0000000000000043000000000B
:10037000000000730000000000000000000000000A
:10038000000000000000000000000000000000006D
:1003900000000066000000000000000000000000F7
:1003A000000000000000000000000000000000004D
:1003B000000000000000000000000000000000003D
:1003C000000000000000000000000000000000002D
:1003D000000000000000000000000000000000001D
:1003E000000000000000000000000000000000000D
:1003F0000000006D00000000000000000000000090
:1004000000000000000000000000000000000000EC
:10041000000000010204081020408005010906A127
:1004200001050719E029E7150025017501950881E7
:1004300002950175088103950575010508190129C3
:100440000591029501750391039506750815002520
:10045000650507190029658100C013011302130304
:100460000045464765666700202B2D2E303132331C
:1004700034353637383968006364696E6F70737568
:100480007858000011241FBECFEFD4E0DEBFCDBFEF
:1004900011E0A0E0B1E0E4EEF7E102C005900D92BA
:1004A000AE30B107D9F711E0AEE0B1E001C01D9266
:1004B000AB35B107E1F70E94A4050C94F00B0C9446
:1004C0000000E9E6F0E0808183608083E89A83ECB5
:1004D0008093310108950F931F93CF93DF93609121
:1004E000410116160CF0D3C0635080913E01CCE060
:1004F000D0E0C81BD109CB5BDE4F80913D018D322E
:1005000009F0A7C08AE580930101683009F0B5C001
:100510008881807609F089C010922F018981882313
:1005200059F4109230018FE291E090934001809352
:100530003F0190E822E086C0853021F48A818093D3
:100540004201FEC0863009F053C08B81813049F4EE
:1005500088EC90E09093400180933F0190EC22E181
:1005600071C0823049F48AED90E09093400180930D
:100570003F0190EC22E266C0833019F58A8188231E
:1005800049F488E690E09093400180933F0190EC1D
:1005900024E058C0813049F48CE690E0909340010B
:1005A00080933F0190EC22E44DC0823009F0CAC034
:1005B0008EEA90E09093400180933F0190EC2AE115
:1005C00041C0813249F48CEE90E0909340018093D9
:1005D0003F0190EC29E036C0823209F0B3C08BE1D4
:1005E00094E09093400180933F0190EC2FE32AC068
:1005F000883019F484E491E00AC0893021F48A81BA
:10060000809344019DC08A3049F48FE291E0909339
:10061000400180933F0190E821E014C08B3009F045
:100620008FC083EC809331018BC0CE010E94E30325
:10063000282F8F3F31F4888187FD2E81822F90E013
:1006400020C090E88F818823D9F48E818217C8F06A
:1006500017C080910E0187FD10C0CE010E941E04BC
:100660008F3F21F48EE18093010104C0882311F0B3
:1006700090E004C090E08FEF04C090E880E001C0FB
:10068000822F90930E01809300011092410180917E
:10069000010184FF4AC0809100018F3F09F445C0E9
:1006A000182F893008F018E0811B80930001809199
:1006B0000E0180FD02C00BE401C003EC8F5F80934C
:1006C0000E0120913F013091400186FD05C0D90106
:1006D000912FE7E2F1E011C0A7E2B1E080E090E005
:1006E00006C0F901E80FF91FE491ED930196181780
:1006F000C1F705C08D91819391509923D9F7F901E4
:10070000E10FF11DF0934001E0933F01612F87E27B
:1007100091E00E943106183019F08FEF80930001AC
:10072000009326011C5F109301019AE089B1857046
:1007300061F49150D9F71092420110923C0105C02A
:1007400090E801C090EC20E07DCFDF91CF911F9128
:100750000F9108951F93DC01162F8091020184FFF1
:100760000AC08091310198E8892780933101912F47
:10077000E2E3F1E007C08AE580930201F8CF8D91B2
:10078000819391509923D9F7612F82E391E00E94E0
:1007900031061C5F109302011F9108951F920F9262
:1007A0000FB60F9211248F9380911301823028F09D
:1007B000809113018150809313018F910F900FBE90
:1007C0000F901F901895FC018DE191E090934001EE
:1007D00080933F0180818076803271F58181813004
:1007E00011F488E00895893049F486819781019752
:1007F00019F581E0809319018FEF0895823019F483
:1008000085E291E013C08A3029F483818093250129
:1008100080E00895833031F48381882369F4109255
:100820000A0108958B3041F48AE091E090934001F1
:1008300080933F0181E0089580E00895FC0180915C
:100840001901882329F0613019F4808180930F0108
:100850001092190181E0089588E0EDE1F1E0DF01F7
:100860001D928A95E9F780911B01882339F08091C8
:10087000180180931D0110921B0121C0E091080115
:10088000F0910901849180931A01982F991F99275B
:10089000991F990F90931D01982F9F7790931F0197
:1008A000882331F03196F0930901E093080104C0E8
:1008B000109209011092080181E080931B0181E0F0
:1008C0000895209111013091120190E02115310518
:1008D00041F0FC01EF77F070EE0FFF1FE20FF31F06
:1008E0000AC08F779070880F991FE0910601F091F0
:1008F0000701E80FF91F25913491822F1092120100
:1009000010921101253608F452C0233768F1209166
:1009100014018337F9F0E82FF0E0EE0FFF1FED5DD3
:10092000FF4F8591949190930901809308018091E4
:10093000150128232093140180911701882309F0C1
:1009400063C083E191E090930701809306011092C8
:1009500016012BC083E192E0909312018093110164
:1009600022602093140121C02D36A8F08D56982FB7
:10097000917090931701869580931601E82FF0E00F
:10098000EE0FFF1FE65AFB4F85919491909307015C
:10099000809306010AC0E22FF0E0E255FC4FE4919B
:1009A000809114018E2B8093140180E008952223FE
:1009B00059F188E0EDE1F1E0DF011D928A95E9F758
:1009C00020931F01332319F030931D0104C080913F
:1009D000140180931D0180911D0180931801809165
:1009E00014019091150189238093140180911701BE
:1009F000882341F483E191E09093070180930601FD
:100A00001092160181E0089580E008951F93182F39
:100A1000662361F080911C01882309F45FC08091F6
:100A20000C0180950E946104282F59C060910C012F
:100A3000462F50E0282F30E0C901809590958423FF
:100A40009523892B59F081E080931C0161236093E9
:100A50000C01809103018093100140C04095509596
:100A600024233523232BD1F180910501882339F0EC
:100A700080911C01811181E08823A1F002C01F3FF9
:100A800089F480911001813011F420E005C0862F97
:100A900080950E946104282F10930C0110921C0174
:100AA000222339F480911001813011F020E00DC033
:100AB00020E08091080190910901892B31F480E6B2
:100AC00094E09093090180930801109210018091A5
:100AD0000501882321F010930C0101C020E0822F32
:100AE0001F9108951F9383B119B1107C8F73182B38
:100AF00090910B019117B9F080911301882329F48B
:100B000080910401809313011BC0809113018130F7
:100B1000B9F460E0812F0E940605982F10930B0115
:100B2000109213010EC080911001823049F461E0EF
:100B3000892F0E940605982F81E08093100101C043
:100B400090E0892F1F910895EF92FF920F931F93CA
:100B50002FE088E190E00FB6F894A89580936000AC
:100B60000FBE209360008FE385B914B888B987E081
:100B700087B98AEF8BB982E08AB9509A20E048EBB6
:100B80005BE004C0A895CA010197F1F72150D1F7A5
:100B9000509888E388B914BC85E085BD8FE28093C6
:100BA000B30082E08093B00086E08093B100809132
:100BB00070008260809370000E946102789400E06F
:100BC000FF24EE24E39401C0F12EA8950E946B024D
:100BD000002361F48091080190910901892B19F09B
:100BE0000E942C0402C00E947205082FA89B16C008
:100BF000E5BA80911001833028F080911001815076
:100C00008093100110912501112341F084E08F158C
:100C100010F001E006C01F2D155001C01F2D00234C
:100C200099F28091020184FFCFCF68E08DE191E0DD
:100C30000E94AA0300E0C8CFA82FB92F80E090E05F
:100C400041E050EA60956F5F58F42D9138EF8227AC
:100C50009795879510F0842795273F5FC8F3F3CFCA
:100C60000895EADF8D939D930895CF93CFB7CF93E7
:100C7000489BFECF489B09C0489B07C0489B05C0C6
:100C8000489B03C0489B01C0A3C0DF93C0913E01B5
:100C9000DD27CB5BDE4F489B02C0DF91EBCF2F936C
:100CA0000F931F9309B12FEF00FB20F94F933F9350
:100CB00019B14FEF012700FB21F93BE031C04E7F16
:100CC000012F19B1216028C0102F4D7F2260000034
:100CD00009B129C04B7F2460012F000019B12BC03E
:100CE00019B1477F28602AC04F7E09B120612CC00E
:100CF0004F7D19B120622FC04F7B09B1206432C0F3
:100D0000422709B149934FEF0000102710FB20F94B
:100D100019B11570C9F1297F91F2012700FB21F962
:100D200009B1237F89F2315058F1102710FB22F9C5
:100D300019B1277E79F2012700FB23F92F7C81F27C
:100D400009B1102710FB24F92F7971F200C019B1F5
:100D5000012700FB25F92F7359F200C009B11027B4
:100D600010FB26F9223040F200C019B1012700FB28
:100D700027F9243028F64F77206819B10000F9CF01
:100D800011E01CBB002719C03B503195C31BD0405C
:100D900011E01CBB0881033CF9F00B34E9F0209111
:100DA0003C011981110F1213EDCF4A81441F0936FE
:100DB00041F10D3211F0013E29F7009343013F91BB
:100DC0004F911F910F912F91DF91CCB3C0FD50CF68
:100DD000CF91CFBFCF91189500914301002379F3B4
:100DE000109141011123A1F53430A2F1309341015A
:100DF00000933D0110913E013BE0311B30933E01D9
:100E000029C00091410101301CF50AE54F7049F4F9
:100E10003091010134FD20C000930101C6E2D1E010
:100E20001FC03091020134FD17C000930201C1E3DD
:100E3000D1E016C0052710E00BB91FC0052722C05E
:100E4000052727C005272CC0052710E00BB933C0A4
:100E50004AE503C042ED01C0432FC4E1D0E032E0D7
:100E60001AB11560589A0BB11AB95F9355E020E892
:100E700020FF05270BB9279517951C3FD8F620FFB3
:100E8000052727950BB917951C3FC0F620FF0527AE
:100E9000279517950BB91C3F98F620FF0527279536
:100EA00017951C3F0BB970F600C0499120FF05272C
:100EB0000BB9279517951C3F38F620FF0527279576
:100EC0000BB917951C3F38F520FF05272795179577
:100ED0000BB91C3F10F520FF0527279517951C3FE0
:100EE0000BB9E8F4242F3A9519F60A7F5F910BB9F4
:100EF00010914201110FC651D04011F010933C01E6
:100F000011E01CBB01601AB11A7F402F4A7F0BB958
:100F10001AB94BB954CF0527D3CF0527D8CF05270A
:100F2000DDCF4F925F926F927F928F929F92BF928E
:100F3000CF92DF92EF92FF920F931F93DF93CF93A5
:100F4000CDB7DEB72B970FB6F894DEBF0FBECDBF7F
:100F50004C013B016A01FC0117821682838181FDED
:100F600008C06FEF7FEF13C142E050E0C40ED51E02
:100F700004C02E010894411C511CF4010381F301AB
:100F800003FD859103FF81913F01882309F4FCC093
:100F9000853259F403FD659103FF61913F0165328C
:100FA00019F0162FBB241EC085E2B40190E02EC0BC
:100FB000112309F4E9C0612F70E088E694E00E94F3
:100FC000BD0A892B49F4133219F4F0E1BF2A04C099
:100FD0001C3669F440E8B42AF30103FD159103FFC0
:100FE00011913F01B7FEE4CF112309F4CDC0612F69
:100FF00070E081E694E00E94BD0A892B51F044E044
:1010000050E0C40ED51EB4018FE390E00E940A0B9D
:10101000B4CF133629F0133781F01335F9F40BC030
:1010200086010E5F1F4FB401F601808191810E94FD
:101030000A0B6801A2CFF1E0BF2AF60100811181FD
:1010400004C0B40190E00E940A0BF801B0FC859145
:10105000B0FE81918F018823A1F786CF143611F05D
:10106000193651F5B7FE08C0F601E080F180028123
:10107000138144E050E00AC0F601808191817C0137
:101080000027F7FC0095102F42E050E0C40ED51E5B
:101090005FEEB52217FF0AC010950095F094E0941A
:1010A000E11CF11C011D111D80E4B82A2AE030E08A
:1010B000A201C801B70138C01037B1F0113730F4C0
:1010C0001835C9F01F3609F05FC006C0153739F072
:1010D000183709F059C00AC028E030E010C09FEE70
:1010E000B9222AE030E00BC0E0E1BE2AF4E2BF2AD8
:1010F00020E130E004C044E0B42A20E132E0B7FE51
:1011000008C0F601608171818281938144E050E0E2
:1011100008C0F60180819181BC0180E090E042E04E
:1011200050E0C40ED51EA2010E94500BF82EF418F8
:101130000B2D10E0B6FE05C0B4018DE290E00E94D8
:101140000A0B04FF15C0FE01EF0DF11D80818033F5
:1011500079F0B40180E390E00E940A0B02FF08C01E
:1011600000721070B401C801885A9F4F0E940A0B88
:10117000FA94F201EF0DF11DB401808190E00E941C
:101180000A0BFF20A9F7F9CEF40166817781CB0124
:101190002B960FB6F894DEBF0FBECDBFCF91DF9177
:1011A0001F910F91FF90EF90DF90CF90BF909F9095
:1011B0008F907F906F905F904F900895FC0120FD7D
:1011C00008C023FD05C022FF02C0738362835183E0
:1011D00040830895EF92FF920F931F9344FF02C044
:1011E00033E011C046FF02C034E00DC0DB01FC015A
:1011F000AA0FBB1FEE1FFF1F1094D1F76A0F7B1FB2
:101200008E1F9F1F31E0660F771F881F991F315077
:10121000D1F77B018C01E20EF11C011D111DA8010B
:101220009701B701CA011F910F91FF90EF900895A8
:101230000F931F93CF93DF938C01C8010E94C80ABC
:10124000EC0197FD08C00E94E50B892BB1F7B801AE
:10125000CE010E94360BCE01DF91CF911F910F91ED
:101260000895A0E0B0E0E7E3F9E00C94B60BEC01E0
:10127000C62E5A01122F0E94C80AAC018B3219F0F7
:101280008D3251F41068CA9409F46DC0CE010E94E9
:10129000C80AAC0197FD67C06DEFD62ED1228D2D07
:1012A000807301F54033F1F4CA9409F447C0CE01CC
:1012B0000E94C80AAC0197FD41C082E0D82A483795
:1012C00011F0483559F480E4D82ACA94B9F1CE0116
:1012D0000E94C80AAC0199232CF430C0D6FC02C08D
:1012E00080E1D82AEE24FF248701242F20532830C0
:1012F00088F0D4FC09C02A3068F0D6FE05C02F7DE6
:10130000822F8151863028F0BE01CA010E94360B1F
:1013100012C027504D2DC801B7010E94EA087B0179
:101320008C0182E0D82ACA9461F0CE010E94C80ADA
:10133000AC0197FFDACFD1FC04C015C0EE24FF2426
:101340008701D7FE08C010950095F094E094E11C49
:10135000F11C011D111D2D2DB801A701C5010E9411
:10136000DE0881E001C080E0CDB7DEB7EAE00C9492
:10137000D20BA0E0B0E0EFEBF9E00C94B20B5C0113
:101380006B013A01FC01178216828824DDC0812F8F
:1013900090E00E94E50B892B21F0C5010E941809FD
:1013A000D3C0153249F4F601F3FC6591F3FE619167
:1013B0006F01653269F415E2C5010E94C80A97FD04
:1013C000CFC0181709F4C0C0B5010E94360BCDC0BC
:1013D0006A3219F0162F00E006C0F3FC1591F3FEF7
:1013E00011916F0101E099240FC00260692D70E036
:1013F00080E090E040E20E94EA08962EF601F3FCBD
:101400001591F3FE11916F01212F20532A3068F3BB
:1014100001FD03C099249A9403C0992009F4A5C042
:10142000183621F01C3699F4F6010BC0F601F3FCD6
:101430006591F3FE6191683619F06F01162F07C0B0
:1014400008600460F3FC1591F3FE11916F01112304
:1014500009F48BC0612F70E088E794E00E94BD0A18
:10146000892B09F482C0802F00FF03C0EE24FF24E3
:1014700007C0F301E080F18022E030E0620E731ECD
:101480001E3651F4F5014681578160E070E0202F4F
:10149000C7010E94DE0858C0133691F481FD02C0D6
:1014A00099249394C5010E94C80A97FD59C0E1147C
:1014B000F10419F0F70181937F019A9499F742C0E2
:1014C000C5010E94180997FD4BC01F3659F110370E
:1014D00028F4143629F1193639F527C0133719F0D5
:1014E000153711F51DC0C5010E94C80AEC0197FD12
:1014F00011C00E94E50B892B29F0B501CE010E9495
:10150000360B08C0E114F10419F0F701C1937F0113
:101510009A9449F7E114F104A9F0F701108212C07E
:10152000006203C0006101C00064202FA701692D83
:10153000C5010E943109882329F4F5018381807354
:1015400079F413C000FF8394F501F380F601F3FCF6
:101550001591F3FE11916F01112309F018CF05C009
:10156000882019F42FEF3FEF02C0282D30E0C90189
:10157000CDB7DEB7EEE00C94CE0BFC01059006165D
:1015800021F00020D9F7C00108953197CF010895C7
:10159000CF93DF93EC014B8140FF1AC046FF0AC096
:1015A0004F7B4B838E819F8101969F838E838A819F
:1015B000282F2BC042FF13C0E881F9818081282F9A
:1015C000332727FD30952115310529F440624B83DF
:1015D0002FEF3FEF1BC03196F983E88311C0EA85F6
:1015E000FB85CE0109959C0197FF0AC09B812F5F67
:1015F0003F4F11F080E201C080E1892B8B83E8CF5F
:101600008E819F8101969F838E8330E0C901DF9197
:10161000CF9108950F931F93CF93DF938C01EB012C
:101620008B8181FF1BC082FF0DC02E813F818C8189
:101630009D812817390764F4E881F9810193F983C2
:10164000E88306C0E885F985802F0995892B31F458
:101650008E819F8101969F838E8302C00FEF1FEFC3
:10166000C801DF91CF911F910F9108959C01FB015B
:10167000838180FF11C086FD0FC09FEF2F3F390788
:1016800059F0228380648F7D8383868197810197BF
:101690009783868330E002C02FEF3FEFC9010895A2
:1016A000FA01AA27283051F1203181F1E8946F9393
:1016B0006E7F6E5F7F4F8F4F9F4FAF4FB1E03ED039
:1016C000B4E03CD0670F781F891F9A1FA11D680FD7
:1016D000791F8A1F911DA11D6A0F711D811D911D0A
:1016E000A11D20D009F468943F912AE0269F11247F
:1016F0003019305D3193DEF6CF010895462F4770E3
:10170000405D4193B3E00FD0C9F7F6CF462F4F703D
:10171000405D4A3318F0495D31FD4052419302D09B
:10172000A9F7EACFB4E0A695979587957795679541
:10173000BA95C9F700976105710508959B01AC0141
:101740000A2E06945795479537952795BA95C9F768
:10175000620F731F841F951FA01D08952F923F9243
:101760004F925F926F927F928F929F92AF92BF92B1
:10177000CF92DF92EF92FF920F931F93CF93DF935D
:10178000CDB7DEB7CA1BDB0B0FB6F894DEBF0FBEBA
:10179000CDBF09942A88398848885F846E847D8407
:1017A0008C849B84AA84B984C884DF80EE80FD8009
:1017B0000C811B81AA81B981CE0FD11D0FB6F8947F
:1017C000DEBF0FBECDBFED010895911106C080327E
:1017D00019F089508550D0F70895992788270895E2
:0417E000F894FFCFAB
:0E17E400FF5A5A190A011301600401FFFF00A9
:00000001FF
