:103800000C945D1C0C94971C0C94781C0C94781CE4
:103810000C94781C0C94781C0C94781C0C94781CD8
:103820000C94781C0C94781C0C94781C0C94781CC8
:103830000C94781C0C94781C0C94781C0C94781CB8
:103840000C94781C0C94781C0C94781C0C94781CA8
:103850000C94781C0C94781C0C94781C0C94781C98
:103860000C94781C0C94781C090212000101008051
:103870003209040000000000000012011001FF00E6
:103880000008C016DC050201010200010E0355000C
:10389000530042006100730070001C037700770042
:1038A00077002E00660069007300630068006C00FA
:1038B0002E00640065000403090411241FBECFEF2D
:1038C000D4E0DEBFCDBF11E0A0E0B1E0E8E5FFE36A
:1038D00002C005900D92A630B107D9F711E0A6E01D
:1038E000B1E001C01D92AE33B107E1F70C94AA1DFF
:1038F0000C94001CA82FB92F8FEF9FEF41E050EAE6
:10390000615070F02D9138E0722F78279695879549
:10391000269570FF02C0842795273A95A9F7F0CF26
:10392000809590950895E6DF8D939D930895CF93AC
:10393000CFB7CF93DF93489BFECF489B0BC0489BEC
:1039400009C0489B07C0489B05C0489B03C0489BD3
:1039500001C089C06F93C0912101DD27C85DDE4F92
:103960002F9365E5489B03C02F916F91E6CF0F938E
:103970001F934F9320E040E15F9309B1057000FB76
:1039800027F93F9350E03BE039C0157040642F7732
:10399000012F53501EC0406819B115702F77535036
:1039A0001FC0406409B12F770570D1F1535000005A
:1039B00023C0406219B12F77157091F15350000068
:1039C00025C005701027515012F45D5F00001150A2
:1039D00027952C3F19B1C8F615700127015027957E
:1039E0002C3FC8F64227499309B1057010274F7341
:1039F000115027952C3FA8F64695469519B115709C
:103A000079F00127015027952C3F98F66B5A60F307
:103A1000315009B1B0F600C011E01CBB002717C03F
:103A20003B503195C31BD04011E01CBB0881033CC7
:103A3000F9F00B34E9F020911F011981110F1213D5
:103A4000EDCF093651F10D3211F0013E39F70093F7
:103A500026013F915F914F911F910F912F916F918F
:103A6000CCB3C0FD68CFDF91CF91CFBFCF91189578
:103A700000912601002369F310912401112339F5E7
:103A800034303AF130932401009320011091210148
:103A90003BE0311B309321011CC000912401013017
:103AA000B4F40AE53091000134FD14C00093000124
:103AB000C4E1D1E013C0052710E000C000000BB93D
:103AC0001AC0052710E0221F1DC010E021C04AE5E2
:103AD00002C032ED432FC4E1D0E032E01AB11560EC
:103AE000589A0BB11AB955E020E865E320FF052785
:103AF0000BB9279517951C3FF0F66695B8F7B1F707
:103B000020FF05270BB9279517951C3FD0F6279561
:103B1000179517FF052700001C3F0BB9B0F6299138
:103B20003A9519F70A7F10912501110FC651D0401F
:103B30000BB911F010931F0111E01CBB01601AB109
:103B40001A7F402F4A7F54E05A95F1F70BB91AB902
:103B50004BB97FCFCFEFD4E0DEBFCDBF8FE385B9C8
:103B60008BB1806C8BB985E088B988B187B914BEF8
:103B700081E085BF82E085BF83B199278073907013
:103B8000892B09F0CEC189B199279C01207430702E
:103B900086FDC7C1690180916900836080936900D7
:103BA000E89A509A2FEFA89580EA9FE00197F1F7E5
:103BB0002150C9F7509878949091240119160CF06F
:103BC0002AC180912101A4E3B1E0A81BB10993505F
:103BD00030E060E8809120018D3209F0A7C08AE5CD
:103BE00080930001983009F010C15C91852F807698
:103BF000ED012981882309F04EC08DE191E03093D9
:103C00001D01222321F430931E0132E011C0253022
:103C100029F4FD018281809325017DC0263051F574
:103C200060ECED018B81813041F48AE798E332E169
:103C300090932301809322016EC0823019F488E6AC
:103C400098E3F5CF833009F066C0FD0182818823B7
:103C500021F486EB98E334E0EBCF813021F48AE95C
:103C600098E33CE1E5CF823009F055C08CE898E359
:103C70003EE0DECF283019F487E291E00AC0293017
:103C800029F4ED018A818093270145C02A3009F08B
:103C900042C031E0CDCF432F86E091E090932301E5
:103CA00080932201233079F4932FED01EC818A81F6
:103CB000803329F4E370FF27EE5FFE4F90819093ED
:103CC000090144E01FC0253011F441E01BC0822FE0
:103CD0008450863090F4FD018281938190930D0190
:103CE00080930C01293071F08681809310018581C9
:103CF0008270809311014FEF05C0223019F481E0EA
:103D000080930B01342F4F3F31F457FF02C0ED0178
:103D10003E816F777AC0FD018781882309F075C0E5
:103D20008681831708F071C0382F6FC080910A0117
:103D300087FD6BC080911001891708F4982F891BAB
:103D400080931001732F882309F471E0692F1916ED
:103D50000CF04DC093E0E92E81E0F82E00911101A6
:103D600015E040910C0150910D01C1E16250CA0172
:103D70008F779070892B49F4F894FA01E0925700FC
:103D8000E895789407B600FCFDCFF8948D919D914D
:103D90000C01FA01F0925700E895112478949A01E9
:103DA0002E5F3F4FA901C9018F779070892B31F0A9
:103DB0001616B4F07723A1F0002391F0F894225066
:103DC0003040F90110935700E8952E5F3F4F7894EB
:103DD00007B600FCFDCFF894C0935700E89578949F
:103DE00016160CF4C3CF30930D0120930C01E72F6E
:103DF000FF273FEFE31731F4E09301018EE1809359
:103E0000000102C0E11130E060E060930A013093EC
:103E10000101109224018091000184FF6AC0809109
:103E200001018F3F09F465C0082F893008F008E0D0
:103E3000801B80930101CBE480910A0180FDC3ECDB
:103E40008F5F80930A01A5E1B1E087FF1CC0E0917C
:103E50002201F0912301902F915086FF07C09F3FD0
:103E600059F084918D9331969150F9CF9F3F21F075
:103E700081918D939150FACFF0932301E093220129
:103E8000602F772722C00023F1F090911001901746
:103E900008F4092F901B909310011127A80160913D
:103EA0000C0170910D01CD010E949F1F80910C01AA
:103EB00090910D01800F911F90930D0180930C0143
:103EC000602F772702C060E070E0062F693048F469
:103ED00085E191E00E94931C902F9C5F083028F4AC
:103EE00001C09EE18FEF80930101C0931401909374
:103EF00000019AE089B1857011F49150D9F79923A6
:103F000021F49093250190931F0180910B01882348
:103F100009F452CE0894C108D108C114D10409F0A3
:103F20004BCE1BB815B817B887B188B9F89481E0A3
:103F300085BF15BEE0911201F09113010995FB01B7
:103F4000DC0140FF05C002C005900D9205900D9266
:083F500042505040C8F70895EB
:063F58005AFF1E94060052
:0400000300003800C1
:00000001FF
