:100000000C945A020C9431060C9479020C947902E7
:100010000C9479020C9479020C9479020C94790274
:100020000C9479020C9479020C9479020C94790264
:100030000C9479020C9479020C9479020C94790254
:100040000C9479020C9479020C9479020C94790244
:100050000C9479020C9479020C9479020C94790234
:100060000C9479020C9479020C9479020C94790224
:100070000C9479020C9479020C9479020C94790214
:100080000C9479020C9479020C9479020C94790204
:100090000C9479020C94790204030904420353007E
:1000A00070006100630065006D0061006E0020005B
:1000B000530070006900660066002000680074004C
:1000C000740070003A002F002F00730079006D005B
:1000D0006C0069006E006B002E0064006B001A0358
:1000E00053007000690066006600430068006F00FE
:1000F0007200640065007200120110010000000827
:10010000401CA3059900010200010902220001011F
:1001100000803209040000010301010009210101EE
:100120000001223F0007058103080014272727004C
:10013000272700B4B45000A6A750002C013001338B
:1001400001370100001A001C001800150000000B08
:100150000016000C0005000E001D0007000000083E
:100160000017006F007100290033003600000037CF
:10017000006700000049000000650042003D0034B7
:100180000070002C0009000A00190006003000135E
:100190000011000F001B000D00140010002F0004C0
:1001A00000120073000000000000000000000000CA
:1001B000000000000000000000000000000000003F
:1001C000005300660028004F0051002A0046004CF2
:1001D000004E0050004D002B004A00520047004BDB
:1001E000003900480000000000000000000000008E
:1001F00000000000000000000000000000000000FF
:10020000000000570058005E005A005D0055006372
:10021000005B005C00590056005F00600054006104
:100220000062006D000000000000000000000000FF
:1002300000000000000000000000000000000000BE
:100240000000000000220021007600200000007560
:10025000002D001F00310021023500380000002E63
:100260000074002C007100290033003600000037B4
:10027000006B00000049000000690000000000342D
:10028000006D001E002600250030002400300022F2
:10029000022F00230024027700380225022F002EAF
:1002A00002270073000000000000000000000000B2
:1002B000000000000000000000000000000000003E
:1002C0000053006A0028004F0051002A0046004CED
:1002D000004E0050004D002B004A00520047004BDA
:1002E000003900480000000000000000000000008D
:1002F00000000000000000000000000000000000FE
:10030000000000570058005E005A005D0055006371
:10031000005B005C00590056005F00600054006103
:100320000062006D000000000000000000000000FE
:1003300000000000000000000000000000000000BD
:1003400000000000003E003D0000003C00000000F6
:100350000000003B00000000000000000000000062
:1003600000000000006D0000000000000000000020
:1003700000670000000000000065000000000000B1
:100380000000003A004200410045004000000044E7
:100390000000003F000000000000004300000000DB
:1003A00000000073000000000000000000000000DA
:1003B000000000000000000000000000000000003D
:1003C00000000066000000000000000000000000C7
:1003D000000000000000000000000000000000001D
:1003E000000000000000000000000000000000000D
:1003F00000000000000000000000000000000000FD
:1004000000000000000000000000000000000000EC
:1004100000000000000000000000000000000000DC
:100420000000006D0000000000000000000000005F
:1004300000000000000000000000000000000000BC
:10044000000000010204081020408005010906A1F7
:1004500001050719E029E7150025017501950881B7
:100460000295017508810395057501050819012993
:1004700005910295017503910395067508150025F0
:10048000650507190029658100C043014302430344
:100490000045464765666700202B2D2E30313233EC
:1004A00034353637383968006364696E6F70737538
:1004B0007858000011241FBECFEFD0E2DEBFCDBFC1
:1004C00011E0A0E0B1E0E2E7F7E100E00BBF02C01D
:1004D00007900D92AC30B107D9F711E0ACE0B1E074
:1004E00001C01D92AA35B107E1F70E94AB050C943B
:1004F000B70B0C9400001F93162F20912F0124FF9F
:1005000007C02091300138E823272093300103C031
:100510002AE520932F01DC01812F815090E08E5C31
:100520009E4FE1E3F1E02D912193E817F907D9F708
:1005300081E391E0612F0E942D061C5F10932F0133
:100540001F9108951F93CF93DF93609140016350F3
:1005500067FDC6C080913D01CCE0D0E0C81BD10949
:10056000CC5BDE4F80913C018D3209F0A6C0683033
:1005700009F0B4C083EC809324018AE580930001E4
:1005800010920C018881807639F0CE010E946005BE
:100590008F3F09F481C087C09A8110922D01898113
:1005A000882331F410922E012DE231E082E06FC0F9
:1005B000853019F49093410167C0863009F04EC030
:1005C0008B81813041F488EF90E090933F018093DC
:1005D0003E0182E13FC0823041F48AE091E0909395
:1005E0003F0180933E0182E235C08330F1F49923CC
:1005F00041F488E990E090933F0180933E0184E0CC
:1006000029C0913041F48CE990E090933F018093B0
:100610003E0182E41FC09230E1F48EED90E09093B1
:100620003F0180933E018AE115C0813241F48CE1A3
:1006300091E090933F0180933E0189E00BC08232AC
:1006400041F48BE494E090933F0180933E018FE36B
:1006500001C080E090E490930C0125C0883069F0DF
:10066000893019F4909343010FC08A3049F08B30E0
:1006700059F48BE48093300107C023E431E002C0D9
:100680002DE231E081E003C02DE231E080E03093E3
:100690003F0120933E0107C0988197FD8E8190E82D
:1006A00090930C0107C09F81992321F49E81981794
:1006B00008F4892F8093010111C080910C0187FFFC
:1006C0000DC0CE010E949D058F3F21F48EE18093E5
:1006D000000104C0882311F0109201011092400122
:1006E0008091000184FF4DC0809101018F3F09F48A
:1006F00048C0182F893008F018E0811B8093010151
:100700008091240198E8892780932401112361F1C5
:1007100080913E0190913F0130910C01212F215099
:1007200036FF0EC030E0A9014A5D5E4FFC01A5E234
:10073000B1E064916D933196A417B507D1F70CC061
:10074000DC0130E0A9014A5D5E4FE5E2F1E06D9128
:100750006193E417F507D9F72F5F3F4F280F391F33
:1007600030933F0120933E0185E291E0612F0E948A
:100770002D061C5F1C3019F08FEF80930101109340
:10078000000184E199B1957031F48150D9F710924C
:10079000410110923B01DF91CF911F910895E9E64D
:1007A000F0E0808182608083E89A8BE4809330015E
:1007B0008AE580932F0108951F920F920FB60F9232
:1007C00011248F9380911101823028F080911101C2
:1007D0008150809311018F910F900FBE0F901F9049
:1007E000189520910F013091100190E021153105ED
:1007F00041F0FC01EF77F070EE0FFF1FE20FF31FE7
:100800000AC08F779070880F991FE0910501F091D1
:100810000601E80FF91F25913491E22F1092100183
:1008200010920F01253608F44EC0233760F1209155
:100830001201E337F1F0F0E0EE0FFF1FED5AFF4F2A
:100840008591949180930701909308018091130101
:1008500082238093120180911501882309F060C0E2
:1008600083E491E0909306018093050110921401B6
:1008700057C083E492E09093100180930F012260AF
:10088000209312014DC02D36A0F0ED568E2F8170B1
:1008900080931501E695E0931401F0E0EE0FFF1F41
:1008A000E657FB4F85919491809305019093060143
:1008B00037C0F0E0E252FC4FE491809112018E2BA0
:1008C000809312012DC0222359F198E0E9E1F1E073
:1008D000DF011D929A95E9F720931B01332319F04C
:1008E0003093190104C08091120180931901809105
:1008F00019018093160180911201909113018923AF
:100900008093120180911501882361F483E491E0C2
:1009100090930601809305011092140181E00895DF
:1009200080E0089581E008951F93182F662359F001
:1009300080912301882309F45DC080910B0180958B
:100940000E94F10358C080910B01282F30E0612FE5
:1009500070E0AB014095509542235323411551055A
:1009600059F091E090932301182310930B0180918B
:10097000020180930E013EC0209530952623372337
:1009800021153105B9F190910401992329F0909135
:100990002301992319F411C01F3F79F490910E019E
:1009A000913021F080950E94F10301C080E0109306
:1009B0000B0110922301882329F480910E018130CC
:1009C00079F480E02091070130910801211531056B
:1009D00041F420E934E0309308012093070101C07D
:1009E00080E010920E0190910401992321F0109360
:1009F0000B0101C080E01F9108951F9383B119B1CD
:100A0000107C8F73182B80910A018117B1F08091AF
:100A10001101882329F4809103018093110118C0EA
:100A2000809111018130A1F4812F60E00E94940433
:100A300010930A01109211010CC090910E01923096
:100A400039F461E00E94940491E090930E0101C09A
:100A500080E01F91089588E0E9E1F1E0DF011D9257
:100A60008A95E9F780912201882339F08091160157
:100A7000809319011092220121C0E0910701F091A9
:100A80000801849180932101982F991F9927991F1C
:100A9000990F90931901982F9F7790931B018823AA
:100AA00031F03196F0930801E093070104C01092F1
:100AB00008011092070181E08093220181E00895EE
:100AC000FC0189E191E090933F0180933E01808198
:100AD0008076803271F58181813049F1893051F41D
:100AE000868197818130910521F581E080931701FE
:100AF0008FEF0895823019F488E191E012C08A30B6
:100B000021F483818093180114C0833031F48381F0
:100B1000882379F41092090108958B3061F489E0FB
:100B200091E090933F0180933E0181E0089588E039
:100B3000089580E0089580E0089520911701222310
:100B400031F0613021F4FC01808180930D0110921D
:100B5000170181E008950F931F93DF93CF930F92B6
:100B6000CDB7DEB72FE088E190E00FB6F894A895F6
:100B7000809360000FBE209360008FE385B914B8A6
:100B800088B987E087B98AEF8BB982E08AB9509A31
:100B900040E020EA3FE004C0A895C9010197F1F7C1
:100BA0004150D1F7509888E388B914BC85E085BDE1
:100BB000809170008260809370000E94CF037894CF
:100BC00010E080E001E0A89589830E94A20289815B
:100BD000882359F48091070190910801009719F03A
:100BE0000E942B0502C00E94FD04A89B11C005BBFA
:100BF00090910E01933028F090910E0191509093B6
:100C00000E0190911801992319F0153020F015501C
:100C10008823C9F202C0192F81E090912F0194FF1F
:100C2000D2CF89E191E068E00E947B0280E0CBCFE7
:100C3000A82FB92F80E090E041E050EA609530E0C5
:100C400009C02D9182279795879510F084279527C5
:100C5000305EC8F36F5FA8F30895EADF8D939D932C
:100C60000895CF93CFB7CF93DF93C395489BE9F710
:100C7000489B0BC0489B09C0489B07C0489B05C0C8
:100C8000489B03C0489B01C08BC06F93C0913D013E
:100C9000DD27CC5BDE4F2F9365E5489B03C02F918A
:100CA0006F91E6CF0F931F934F9320E040E15F9346
:100CB00009B1057000FB27F93F9350E03BE039C0D4
:100CC000157040642F77012F5F5F1EC0406819B117
:100CD00015702F7752501FC0406409B12F770570EF
:100CE000D1F15F5F00C023C0406219B12F7715704A
:100CF00091F15F5F00C025C005701027515012F4BC
:100D00005D5F0000115027952C3F19B1C8F6157092
:100D10000127015027952C3FC8F64227499309B176
:100D2000057010274F73115027952C3FA8F6469554
:100D3000469519B1157079F00127015027952C3F80
:100D400098F66B5A60F3315009B1B0F600C011E06B
:100D50001CBB002719C03B503195C31BD04011E08C
:100D60001CBB0881033C09F10B34F9F020913B01D5
:100D70001981110F1213EDCF4A81441F093651F129
:100D80000D3211F0013E29F7009342013F915F912E
:100D90004F911F910F912F916F91CCB3C0FD65CFF3
:100DA000DF91CF91CFBFCF9118952091420122239F
:100DB00069F310914001112391F5343092F1309391
:100DC000400120933C0110913D013BE0311B3093E9
:100DD0003D0127C00091400101300CF50AE54F703C
:100DE00049F43091000134FD1DC000930001C4E2BC
:100DF000D1E01CC030912F0134FD14C000932F01AD
:100E0000C0E3D1E013C0052710E000C000000BB91B
:100E10001AC0052710E0221F1DC010E021C04AE5BE
:100E200002C032ED432FC4E1D0E032E01AB11560C8
:100E3000589A0BB11AB955E020E865E320FF052761
:100E40000BB9279517951C3FF0F66695B8F7B1F7E3
:100E500020FF05270BB9279517951C3FD0F627953E
:100E6000179517FF052700001C3F0BB9B0F6299115
:100E70003A9519F70A7F10914101110FC651D040E0
:100E80000BB911F010933B0111E01CBB01601AB1CA
:100E90001A7F402F4A7F54E05A95F1F70BB91AB9DF
:100EA0004BB974CF6F927F928F929F92AF92BF9205
:100EB000CF92DF92EF92FF920F931F93DF93CF9326
:100EC000CDB7DEB72C970FB6F894DEBF0FBECDBFFF
:100ED0006C013B018A01FC0117821682838181FD2E
:100EE00003C01EC1850104C04E010894811C911CE1
:100EF000F601E380F301E3FC8591E3FE81913F017C
:100F0000882309F409C1853251F4E3FC2591E3FEFD
:100F100021913F01253211F0FF2423C085E290E0AA
:100F2000B6010E940F0B5801DDCF222309F489C0BE
:100F300088E994E0622F70E02C870E94C20A2C8519
:100F4000009749F4233219F4F0E1FF2A04C02C364B
:100F500069F420E8F22AF301E3FC2591E3FE2191F4
:100F60003F01F7FEE2CF222309F43FC081E994E07C
:100F7000622F70E02C870E94C20A2C85009741F0F6
:100F800064E0A62EB12CA00EB11E8FE390E00FC03E
:100F9000233629F0233789F0233529F50CC052E098
:100FA000A52EB12CA00EB11EF80180819181B60151
:100FB0000E940F0B97CFF1E0FF2A42E0A42EB12C44
:100FC000A00EB11EF8010081118104C090E0B601AD
:100FD0000E940F0BF801F0FC8591F0FE81918F01CA
:100FE0008823A1F77FCF243611F0293651F5F7FE7B
:100FF0000BC034E0A32EB12CA00EB11EF80160810D
:101000007181828193810CC022E0A22EB12CA00EAE
:10101000B11EF80160817181882777FD8095982F36
:10102000FFEEFF2297FF09C090958095709561951E
:101030007F4F8F4F9F4F20E4F22AA4012AE030E037
:101040003BC0203799F0213730F42835B1F02F36E6
:1010500009F062C017C0253721F0283709F05CC0BD
:1010600007C08FEEF8222AE030E00EC0E0E1FE2A51
:10107000F4E2FF2A20E130E007C024E0F22A20E178
:1010800032E002C028E030E0F7FE0BC094E0A92E69
:10109000B12CA00EB11EF801608171818281938113
:1010A0000AC082E0A82EB12CA00EB11EF80160810A
:1010B000718180E090E0A4010E94560BE82EE818B0
:1010C0000F2D10E0F6FE05C08DE290E0B6010E9403
:1010D0000F0B04FF15C0FE01EE0DF11D8081803362
:1010E00079F080E390E0B6010E940F0B02FF08C088
:1010F000C80180729070885A9F4FB6010E940F0BF2
:10110000EA94F401EE0DF11D808190E0B6010E9499
:101110000F0BEE20A9F7E6CEF6012681378102C03B
:101120002FEF3FEFC9012C960FB6F894DEBF0FBE2C
:10113000CDBFCF91DF911F910F91FF90EF90DF9086
:10114000CF90BF90AF909F908F907F906F900895B9
:1011500020FD09C0FC0123FD05C022FF02C07383EE
:101160006283518340830895EF92FF920F931F9300
:1011700044FD10C046FD10C0DB01FC01AA0FBB1FDF
:10118000EE1FFF1F1094D1F76A0F7B1F8E1F9F1F4A
:1011900031E003C033E001C034E0660F771F881FE1
:1011A000991F3150D1F77B018C01E20EF11C011D1A
:1011B000111DA8019701B701CA011F910F91FF905E
:1011C000EF900895EF92FF920F931F93CF93DF93C9
:1011D0008C01C8010E94CD0AEC0197FD08C00E9455
:1011E000BA0A0097B1F7CE01B8010E943B0BCE01BD
:1011F000DF91CF911F910F91FF90EF9008958F9203
:101200009F92AF92BF92DF92EF92FF920F931F9344
:10121000DF93CF930F92CDB7DEB74C01D62E5A0194
:10122000122F0E94CD0A8B3219F08D3249F41068CA
:10123000DA9409F46CC0C4010E94CD0A97FD67C01E
:10124000312F3D7F232F2073F1F48033E1F4DA94C2
:1012500009F448C0C40139830E94CD0A398197FD41
:1012600041C03260883711F0883559F43064DA941F
:10127000C9F1C40139830E94CD0A398197FF03C0A7
:1012800031C036FF3061EE24FF248701282F205320
:10129000283090F034FD09C02A3070F036FF05C0C8
:1012A0002F7D422F4151463030F0B40139830E94E6
:1012B0003B0B398114C02750C801B701432F398334
:1012C0000E94B4087B018C0139813260DA9469F0A4
:1012D000C40139830E94CD0A398197FFD7CF31FDF0
:1012E00004C015C0EE24FF24870137FF08C0109505
:1012F0000095F094E094E11CF11C011D111DC50145
:10130000B801A701232F0E94A80881E001C080E056
:101310000F90CF91DF911F910F91FF90EF90DF9091
:10132000BF90AF909F908F9008954F925F926F9271
:101330007F929F92AF92BF92CF92DF92EF92FF92F5
:101340000F931F93DF93CF930F92CDB7DEB78C012E
:101350005B013A01FC0117821682EE24E6C08F2D54
:1013600090E00E94BA0A009721F0C8010E94E208AA
:10137000DCC0FF2DF53251F4F501C3FC3591C3FEFD
:1013800031915F01353271F455E2F52EC8010E94AA
:10139000CD0A97FDD6C0F81609F4C7C0B8010E945F
:1013A0003B0BD1C03A3241F4C3FC3591C3FE3191BD
:1013B0005F01FF24F39401C0FF24992410C0F2E0E0
:1013C000FF2A692D70E080E090E040E20E94B408BE
:1013D000962EF501C3FC3591C3FE31915F01232F99
:1013E00020532A3060F3F1FE03C0992019F4ABC0FA
:1013F00099249A94383619F03C3699F40AC0F501CC
:10140000C3FC3591C3FE31915F01383651F4F8E0E9
:10141000FF2A44E0F42AF501C3FC3591C3FE319163
:101420005F01332309F48FC088EA94E0632F70E0F2
:1014300039830E94C20A3981009709F484C08F2D34
:10144000F0FC08C0F3014080518042E050E0640E9F
:10145000751E02C0442455243E3651F4F8014681DD
:10146000578160E070E0C2012F2D0E94A8085DC086
:10147000333691F481FD02C099249394C8010E94EF
:10148000CD0A97FD5EC04114510419F0F201819319
:101490002F019A9499F747C0C80139830E94E20846
:1014A000398197FD4EC03F3661F1303728F434362C
:1014B00029F1393649F52AC0333719F0353721F586
:1014C0001DC0C8010E94CD0A6C0197FD11C00E9489
:1014D000BA0A009729F0C601B8010E943B0B08C068
:1014E0004114510419F0F201C1922F019A9449F765
:1014F00041145104C1F0F201108215C0F0E2FF2A3C
:1015000005C040E1F42A02C050E4F52AC801692D63
:10151000A2012F2D0E94FF08882329F4F80183815E
:10152000807379F410C0F0FEE394F801C380F501F4
:10153000C3FCF590C3FEF1905F01FF2009F00FCFCF
:1015400002C0EE2019F02E2D30E002C02FEF3FEF49
:10155000C9010F90CF91DF911F910F91FF90EF90F4
:10156000DF90CF90BF90AF909F907F906F905F90F3
:101570004F9008959111F8C0803219F0895085502C
:10158000D0F70895FC010590061621F00020D9F748
:10159000C00108953197CF010895CF93DF93EC01F7
:1015A0003B8130FF36C036FF09C03F7B3B838E81D5
:1015B0009F8101969F838E832A8129C032FF0FC0AD
:1015C000E881F9818081992787FD9095009719F42A
:1015D00030623B831EC03196F983E88311C0EA85EF
:1015E000FB85CE01099597FF0BC02B813FEF8F3F05
:1015F000930711F480E101C080E2822B8B8309C044
:101600002E813F812F5F3F4F3F832E83282F30E075
:1016100002C02FEF3FEFC901DF91CF9108950F93E3
:101620001F93CF93DF938C01EB018B8181FF1BC054
:1016300082FF0DC02E813F818C819D812817390743
:1016400064F4E881F9810193F983E88306C0E885B1
:10165000F985802F0995009731F48E819F8101963D
:101660009F838E8302C00FEF1FEFC801DF91CF91E0
:101670001F910F910895FB01238120FF13C026FDC8
:1016800011C03FEF8F3F930769F0828320642F7D65
:101690002383268137812150304037832683282FAA
:1016A00030E002C02FEF3FEFC9010895FA01AA27E9
:1016B000283051F1203181F1E8946F936E7F6E5F95
:1016C0007F4F8F4F9F4FAF4FB1E03ED0B4E03CD043
:1016D000670F781F891F9A1FA11D680F791F8A1F26
:1016E000911DA11D6A0F711D811D911DA11D20D08D
:1016F00009F468943F912AE0269F11243019305D47
:101700003193DEF6CF010895462F4770405D419337
:10171000B3E00FD0C9F7F6CF462F4F70405D4A3384
:1017200018F0495D31FD4052419302D0A9F7EACF4C
:10173000B4E0A6959795879577956795BA95C9F77B
:1017400000976105710508959B01AC010A2E06946E
:101750005795479537952795BA95C9F7620F731F27
:10176000841F951FA01D0895992788270895F89430
:02177000FFCFA9
:0C1772005AFF210A014301900401FFFF0F
:00000001FF
