:100000000C945A020C9479020C9479020C947902A3
:100010000C9479020C9479020C9479020C94790274
:100020000C9479020C9479020C94BA040C941D057A
:100030000C9479020C9479020C9479020C94790254
:100040000C9479020C9479020C9479020C94790244
:100050000C9479020C9479020C9479020C94790234
:100060000C9479020C9479020C9479020C94790224
:100070000C9479020C9479020C9479020C94790214
:100080000C9479020C9479020C9479020C94790204
:100090000C9479020C94790227272700272700B4B3
:1000A000B45000A6A7500098009C009F00A3000039
:1000B000001A001C001800150000000B0016000CB0
:1000C0000005000E001D0007000000080017006F6B
:1000D000007100290033003600000037006700007F
:1000E0000049000000650042003D00340070002C13
:1000F0000009000A00190006003000130011000F6B
:10010000001B000D00140010002F000400120073EB
:1001100000000000000000000000000000000000DF
:100120000000000000000000000000000053006616
:100130000028004F0051002A0046004C004E00509D
:10014000004D002B004A00520047004B0039004888
:10015000000000000000000000000000000000009F
:100160000000000000000000000000000000005738
:100170000058005E005A005D00550063005B005CA3
:1001800000590056005F0060005400610062006D7D
:10019000000000000000000000000000000000005F
:1001A000000000000000000000000000000000004F
:1001B000002200210076002000000075002D001FA5
:1001C00000310021023500380000002E0074002CA0
:1001D000007100290033003600000037006B00007A
:1001E000004900000069000000000034006D001E9E
:1001F000002600250030002400300022022F0023BA
:100200000024027700380225022F002E02270073F7
:1002100000000000000000000000000000000000DE
:100220000000000000000000000000000053006A11
:100230000028004F0051002A0046004C004E00509C
:10024000004D002B004A00520047004B0039004887
:10025000000000000000000000000000000000009E
:100260000000000000000000000000000000005737
:100270000058005E005A005D00550063005B005CA2
:1002800000590056005F0060005400610062006D7C
:10029000000000000000000000000000000000005E
:1002A000000000000000000000000000000000004E
:1002B000003E003D0000003C000000000000003B4C
:1002C000000000000000000000000000000000002E
:1002D000006D00000000000000000000006700004A
:1002E0000000000000650000000000000000003A6F
:1002F0000042004100450040000000440000003F73
:100300000000000000000043000000000000007337
:1003100000000000000000000000000000000000DD
:100320000000000000000000000000000000006667
:1003300000000000000000000000000000000000BD
:1003400000000000000000000000000000000000AD
:10035000000000000000000000000000000000009D
:10036000000000000000000000000000000000008D
:10037000000000000000000000000000000000007D
:100380000000000000000000000000000000006D00
:10039000000000000000000000000000000000005D
:1003A000000000000000000000000000000000014C
:1003B00002040810204080AF00AF01AF020000012E
:1003C0000000F503120002000007042200220000D2
:1003D00029043F00210000190409000300006804FB
:1003E00004010309046C0410020309047E041200D2
:1003F0000001C106001201000200000020C0167CAE
:100400000400010102000109022200010100C032C2
:10041000090400000103010100092111010001226A
:100420003F000705830308000105010906A10175C6
:10043000019508050719E029E715002501810295B6
:1004400001750881039505750105081901290591B4
:100450000295017503910395067508150025680539
:1004600007190029688100C00403090410034D0026
:10047000660067004E0061006D0065000000120319
:100480004B006500790062006F006100720064003B
:10049000000045464765666700202B2D2E3031321F
:1004A0003334353637383968006364696E6F70737A
:1004B0007578580011241FBECFEFD0E2DEBFCDBF4C
:1004C00011E0A0E0B1E0ECE0F6E100E00BBF02C01B
:1004D00007900D92AC30B107D9F711E0ACE0B1E074
:1004E00001C01D92AD32B107E1F70E94FD030C94EB
:1004F000040B0C9400001F920F920FB60F92112460
:100500008F9380911001823028F0809110018150EA
:10051000809310018F910F900FBE0F901F90189530
:1005200020910E0130910F0190E02115310541F02D
:10053000FC01EF77F070EE0FFF1FE20FF31F0AC010
:100540008F779070880F991FE0910301F09104015B
:10055000E80FF91F25913491E22F10920F011092AC
:100560000E01253608F44EC0233760F120911101A9
:10057000E337F1F0F0E0EE0FFF1FE154F04085911A
:10058000949180930501909306018091120182233A
:100590008093110180911401882309F060C08FEAD3
:1005A00090E090930401809303011092130157C0CF
:1005B0008FEA91E090930F0180930E0122602093C7
:1005C00011014DC02D36A0F0ED568E2F8170809315
:1005D0001401E695E0931301F0E0EE0FFF1FE954DC
:1005E000FC4F85919491809303019093040137C04F
:1005F000F0E0E65BFC4FE491809111018E2B80933B
:1006000011012DC0222359F198E0E7E1F1E0DF016B
:100610001D929A95E9F720931901332319F030932D
:10062000170104C080911101809317018091170177
:10063000809315018091110190911201892380937B
:10064000110180911401882361F48FEA90E0909366
:100650000401809303011092130181E0089580E06A
:10066000089581E008951F93182F662359F0809113
:100670002101882309F45DC08091080180950E94C2
:10068000900258C080910801282F30E0612F70E05F
:10069000AB0140955095422353234115510559F024
:1006A00091E090932101182310930801809100019B
:1006B00080930D013EC020953095262337232115C8
:1006C0003105B9F190910201992329F0909121010E
:1006D000992319F411C01F3F79F490910D019130C5
:1006E00021F080950E94900201C080E010930801E3
:1006F00010922101882329F480910D01813079F431
:1007000080E020910501309106012115310541F469
:100710002DEB33E0309306012093050101C080E00A
:1007200010920D0190910201992321F0109308017C
:1007300001C080E01F91089586B108951F9316B1FE
:10074000809107018117B1F080911001882329F46D
:10075000809101018093100118C0809110018130B7
:10076000A1F4812F60E00E943303109307011092DF
:1007700010010CC090910D01923039F461E00E949B
:10078000330391E090930D0101C080E01F91089523
:1007900088E0E7E1F1E0DF011D928A95E9F78091B9
:1007A0002001882339F08091150180931701109260
:1007B000200121C0E0910501F09106018491809310
:1007C0001F01982F991F9927991F990F909317012F
:1007D000982F9F7790931901882331F03196F093E9
:1007E0000601E093050104C0109206011092050174
:1007F00081E08093200181E008951F932FE088E13C
:1008000090E00FB6F894A895809360000FBE2093F7
:1008100060008FEF85B914B888B917B814BC85E0AB
:1008200085BD809170008260809370005E9A0E9406
:1008300057040E946E048823E1F380E197E220E9E7
:1008400031E0F9013197F1F70197D9F711E0A89557
:100850008091050190910601009719F00E94C8034C
:1008600002C00E949E03A89B0AC015BB90910D0177
:10087000933028F090910D01915090930D018823B1
:1008800031F3E9E1F1E0A3E2B1E081918D9381E000
:10089000E132F807D1F780911901609117010E94A8
:1008A000AB04D5CF8091E80080FFFCCF089581E8AC
:1008B0008093D70080EA8093D80086E189BD09B48F
:1008C00000FEFDCF80E98093D8001092E0001092E6
:1008D0002A018CE08093E2007894089580912A01A7
:1008E000089580912A01882391F18FB7F89493E0BD
:1008F0009093E9009091E4009E5C23E03091E80041
:1009000035FD0EC08FBF80912A01882301F18091AF
:10091000E4008917F1F08FB7F8942093E900EECF47
:10092000909122019093F1001092F100E3E2F1E046
:1009300091919093F10091E0E932F907C9F79AE3B8
:100940009093E80010922B018FBF80E008958FEF05
:1009500008958FEF089560932201809323010E94F0
:100960007104882331F410922201109223010E9415
:10097000710408951F920F920FB60F920BB60F924B
:1009800011242F938F939F93EF93FF938091E10016
:100990001092E10083FF0FC01092E90091E0909364
:1009A000EB001092EC0092E29093ED0098E09093AF
:1009B000F00010922A0182FF34C080912A0188231E
:1009C00081F120910901222361F180912C018F5F37
:1009D00080932C0190E083709070009711F583E074
:1009E0008093E9008091E80085FF1BC080912B0176
:1009F0008F5F80932B018217A1F410922B018091BD
:100A000022018093F1001092F100E3E2F1E0819184
:100A10008093F10081E0E932F807C9F78AE3809317
:100A2000E800FF91EF919F918F912F910F900BBE56
:100A30000F900FBE0F901F9018951F920F920FB638
:100A40000F920BB60F921124CF92DF92EF92FF928A
:100A50000F931F932F933F934F935F936F937F93C6
:100A60008F939F93AF93BF93EF93FF93DF93CF93B6
:100A70000F92CDB7DEB71092E9008091E80083FFB6
:100A80003FC12091F1003091F1008091F100C82E1A
:100A9000DD244091F100942F80E0C82AD92A0091EA
:100AA000F10010E04091F100942F80E0082B192B09
:100AB0006091F100A091F10082EF8093E800363060
:100AC00009F059C085EC93E09C0125503040FC01B1
:100AD0003797459154914C155D05F9F4F90145910D
:100AE000549140175107C9F42E5F3F4FF90185918A
:100AF00094912E5F3F4FF9012491462F50E07A2FB9
:100B000060E0462B572B4F3F510519F010F04FEF87
:100B100050E0421750F4242F08C00796295F3F4F3A
:100B2000F3E0863F9F0799F6EBC0AEEF4091E800F7
:100B300050E0BA016570707061157105B9F342FD3E
:100B4000E2C0322F213208F030E2AC01632F07C03F
:100B5000FA014F5F5F4FE491E093F100615066232B
:100B6000B9F7830F911D231BA093E8002223F1F610
:100B70003032E1F2C8C0353051F48EEF8093E80096
:100B80000E9452048C2D80688093E300BCC03930F1
:100B900031F5222309F06BC0C0922A018EEF8093B9
:100BA000E80041E08FEE93E04093E900FC010196FC
:100BB000E491E093EB00EE2369F09C012F5F3F4F3F
:100BC000FC0184918093EC00C9010196F901249104
:100BD0002093ED004F5F453039F78EE143C0383048
:100BE00041F4203809F043C00E94520480912A0148
:100BF00065C03323B1F429830E945204298122382D
:100C000051F40093E9009091EB0081E095FF80E0C2
:100C10001092E90001C080E08093F1001092F10091
:100C20006BC0313011F0333011F5223001F5C114B1
:100C3000D104E9F4402F4F77842F81508430B8F4E9
:100C40008EEF8093E8004093E900333009F458C0F8
:100C500089E18093EB0081E090E002C0880F991F4A
:100C60004A95E2F78093EA001092EA004CC0011521
:100C7000110509F045C0213A21F5313091F40E9467
:100C80005204809122018093F1001092F100E3E27E
:100C9000F1E081918093F10021E0E932F207C9F798
:100CA0002BC0323029F40E9452048091090106C001
:100CB000333031F50E94520480910A018093F10093
:100CC0001BC02132E9F4393061F48091E80082FFE1
:100CD000FCCF8091F100809329018BEF8093E80095
:100CE0000BC03A3029F4D092090110922B0104C0B4
:100CF0003B3031F4C0920A018EEF8093E80003C0CC
:100D000081E28093EB000F90CF91DF91FF91EF9103
:100D1000BF91AF919F918F917F916F915F914F9113
:100D20003F912F911F910F91FF90EF90DF90CF9007
:100D30000F900BBE0F900FBE0F901F9018956F92E3
:100D40007F928F929F92AF92BF92CF92DF92EF925B
:100D5000FF920F931F93DF93CF93CDB7DEB72C97FE
:100D60000FB6F894DEBF0FBECDBF6C013B018A0108
:100D7000FC0117821682838181FD03C01EC185019B
:100D800004C04E010894811C911CF601E380F3011C
:100D9000E3FC8591E3FE81913F01882309F409C1B9
:100DA000853251F4E3FC2591E3FE21913F01253288
:100DB00011F0FF2423C085E290E0B6010E945C0A96
:100DC0005801DDCF222309F489C089E994E0622F1C
:100DD00070E02C870E940F0A2C85009749F423327B
:100DE00019F4F0E1FF2A04C02C3669F420E8F22A55
:100DF000F301E3FC2591E3FE21913F01F7FEE2CFF1
:100E0000222309F43FC082E994E0622F70E02C872E
:100E10000E940F0A2C85009741F064E0A62EB12CA9
:100E2000A00EB11E8FE390E00FC0233629F02337C8
:100E300089F0233529F50CC052E0A52EB12CA00E67
:100E4000B11EF80180819181B6010E945C0A97CFA2
:100E5000F1E0FF2A42E0A42EB12CA00EB11EF80151
:100E60000081118104C090E0B6010E945C0AF80183
:100E7000F0FC8591F0FE81918F018823A1F77FCF4F
:100E8000243611F0293651F5F7FE0BC034E0A32EBD
:100E9000B12CA00EB11EF801608171818281938115
:100EA0000CC022E0A22EB12CA00EB11EF801608170
:100EB0007181882777FD8095982FFFEEFF2297FF9D
:100EC00009C090958095709561957F4F8F4F9F4F8A
:100ED00020E4F22AA4012AE030E03BC0203799F058
:100EE000213730F42835B1F02F3609F062C017C031
:100EF000253721F0283709F05CC007C08FEEF822B3
:100F00002AE030E00EC0E0E1FE2AF4E2FF2A20E110
:100F100030E007C024E0F22A20E132E002C028E0FD
:100F200030E0F7FE0BC094E0A92EB12CA00EB11E4C
:100F3000F80160817181828193810AC082E0A82ECC
:100F4000B12CA00EB11EF8016081718180E090E0AB
:100F5000A4010E94A30AE82EE8180F2D10E0F6FE67
:100F600005C08DE290E0B6010E945C0A04FF15C046
:100F7000FE01EE0DF11D8081803379F080E390E079
:100F8000B6010E945C0A02FF08C0C801807290701E
:100F9000885A9F4FB6010E945C0AEA94F401EE0D54
:100FA000F11D808190E0B6010E945C0AEE20A9F755
:100FB000E6CEF6012681378102C02FEF3FEFC9014F
:100FC0002C960FB6F894DEBF0FBECDBFCF91DF9148
:100FD0001F910F91FF90EF90DF90CF90BF90AF9057
:100FE0009F908F907F906F90089520FD09C0FC0125
:100FF00023FD05C022FF02C07383628351834083B7
:101000000895EF92FF920F931F9344FD10C046FD89
:1010100010C0DB01FC01AA0FBB1FEE1FFF1F1094C5
:10102000D1F76A0F7B1F8E1F9F1F31E003C033E093
:1010300001C034E0660F771F881F991F3150D1F728
:101040007B018C01E20EF11C011D111DA80197010D
:10105000B701CA011F910F91FF90EF900895EF9291
:10106000FF920F931F93CF93DF938C01C8010E94CF
:101070001A0AEC0197FD08C00E94070A0097B1F711
:10108000CE01B8010E94880ACE01DF91CF911F9155
:101090000F91FF90EF9008958F929F92AF92BF9221
:1010A000DF92EF92FF920F931F93DF93CF930F92F4
:1010B000CDB7DEB74C01D62E5A01122F0E941A0A64
:1010C0008B3219F08D3249F41068DA9409F46CC04F
:1010D000C4010E941A0A97FD67C0312F3D7F232F5C
:1010E0002073F1F48033E1F4DA9409F448C0C401C8
:1010F00039830E941A0A398197FD41C032608837CE
:1011000011F0883559F43064DA94C9F1C401398397
:101110000E941A0A398197FF03C031C036FF30613F
:10112000EE24FF248701282F2053283090F034FD2F
:1011300009C02A3070F036FF05C02F7D422F415183
:10114000463030F0B40139830E94880A398114C0D6
:101150002750C801B701432F39830E9401087B0142
:101160008C0139813260DA9469F0C40139830E94BC
:101170001A0A398197FFD7CF31FD04C015C0EE247C
:10118000FF24870137FF08C010950095F094E09484
:10119000E11CF11C011D111DC501B801A701232F80
:1011A0000E94F50781E001C080E00F90CF91DF91B0
:1011B0001F910F91FF90EF90DF90BF90AF909F90A5
:1011C0008F9008954F925F926F927F929F92AF920D
:1011D000BF92CF92DF92EF92FF920F931F93DF9314
:1011E000CF930F92CDB7DEB78C015B013A01FC01C2
:1011F00017821682EE24E6C08F2D90E00E94070A27
:10120000009721F0C8010E942F08DCC0FF2DF532A5
:1012100051F4F501C3FC3591C3FE31915F013532C4
:1012200071F455E2F52EC8010E941A0A97FDD6C046
:10123000F81609F4C7C0B8010E94880AD1C03A3232
:1012400041F4C3FC3591C3FE31915F01FF24F39457
:1012500001C0FF24992410C0F2E0FF2A692D70E03C
:1012600080E090E040E20E940108962EF501C3FC68
:101270003591C3FE31915F01232F20532A3060F353
:10128000F1FE03C0992019F4ABC099249A94383622
:1012900019F03C3699F40AC0F501C3FC3591C3FE40
:1012A00031915F01383651F4F8E0FF2A44E0F42A26
:1012B000F501C3FC3591C3FE31915F01332309F47D
:1012C0008FC089EA94E0632F70E039830E940F0A8F
:1012D0003981009709F484C08F2DF0FC08C0F30118
:1012E0004080518042E050E0640E751E02C04424EC
:1012F00055243E3651F4F8014681578160E070E094
:10130000C2012F2D0E94F5075DC0333691F481FD97
:1013100002C099249394C8010E941A0A97FD5EC0E6
:101320004114510419F0F20181932F019A9499F715
:1013300047C0C80139830E942F08398197FD4EC0EC
:101340003F3661F1303728F4343629F1393649F522
:101350002AC0333719F0353721F51DC0C8010E9466
:101360001A0A6C0197FD11C00E94070A009729F024
:10137000C601B8010E94880A08C04114510419F03E
:10138000F201C1922F019A9449F741145104C1F01E
:10139000F201108215C0F0E2FF2A05C040E1F42AF4
:1013A00002C050E4F52AC801692DA2012F2D0E9428
:1013B0004C08882329F4F8018381807379F410C0E4
:1013C000F0FEE394F801C380F501C3FCF590C3FE81
:1013D000F1905F01FF2009F00FCF02C0EE2019F05D
:1013E0002E2D30E002C02FEF3FEFC9010F90CF91BB
:1013F000DF911F910F91FF90EF90DF90CF90BF9002
:10140000AF909F907F906F905F904F900895911153
:10141000F8C0803219F089508550D0F70895FC014A
:101420000590061621F00020D9F7C00108953197E4
:10143000CF010895CF93DF93EC013B8130FF36C09D
:1014400036FF09C03F7B3B838E819F8101969F833E
:101450008E832A8129C032FF0FC0E881F981808103
:10146000992787FD9095009719F430623B831EC041
:101470003196F983E88311C0EA85FB85CE01099591
:1014800097FF0BC02B813FEF8F3F930711F480E153
:1014900001C080E2822B8B8309C02E813F812F5FA8
:1014A0003F4F3F832E83282F30E002C02FEF3FEFC6
:1014B000C901DF91CF9108950F931F93CF93DF93CD
:1014C0008C01EB018B8181FF1BC082FF0DC02E813F
:1014D0003F818C819D812817390764F4E881F98167
:1014E0000193F983E88306C0E885F985802F099583
:1014F000009731F48E819F8101969F838E8302C075
:101500000FEF1FEFC801DF91CF911F910F91089549
:10151000FB01238120FF13C026FD11C03FEF8F3F49
:10152000930769F0828320642F7D2383268137818E
:101530002150304037832683282F30E002C02FEF20
:101540003FEFC9010895FA01AA27283051F120314F
:1015500081F1E8946F936E7F6E5F7F4F8F4F9F4F47
:10156000AF4FB1E03ED0B4E03CD0670F781F891F89
:101570009A1FA11D680F791F8A1F911DA11D6A0F57
:10158000711D811D911DA11D20D009F468943F910A
:101590002AE0269F11243019305D3193DEF6CF0109
:1015A0000895462F4770405D4193B3E00FD0C9F7CF
:1015B000F6CF462F4F70405D4A3318F0495D31FD3C
:1015C0004052419302D0A9F7EACFB4E0A69597958F
:1015D000879577956795BA95C9F700976105710565
:1015E00008959B01AC010A2E0694579547953795AF
:1015F0002795BA95C9F7620F731F841F951FA01D09
:0C1600000895992788270895F894FFCFDB
:0C160C00210A01AF00BD03FFFF7D0100BB
:00000001FF
