:101800003BC072C053C052C051C050C04FC04EC048
:101810004DC04CC04BC04AC049C048C047C046C07C
:1018200045C044C043C009021200010100803209D2
:10183000040000000000000012011001FF00000879
:10184000C016DC050201010200010E035500530021
:1018500042006100730070001C037700770077007E
:101860002E00660069007300630068006C002E00A3
:10187000640065000403090411241FBECFE5D4E011
:10188000DEBFCDBF10E0A0E6B0E0E6E0FFE102C0C1
:1018900005900D92A636B107D9F710E0A6E6B0E0A4
:1018A00001C01D92AE39B107E1F731C1A9CFA82F10
:1018B000B92F8FEF9FEF41E050EA615070F02D910A
:1018C00038E0722F782796958795269570FF02C08D
:1018D000842795273A95A9F7F0CF8095909508959C
:1018E000E6DF8D939D930895CF93CFB7CF93DF938A
:1018F000809BFECF809B0BC0809B09C0809B07C054
:10190000809B05C0809B03C0809B01C089C06F93F2
:10191000C0918100DD27C857DF4F2F9365E5809B7D
:1019200003C02F916F91E6CF0F931F934F9320E049
:1019300040E15F9300B3057000FB27F93F9350E04F
:101940003BE039C0157040642F77012F53501EC003
:10195000406810B315702F7753501FC0406400B318
:101960002F770570D1F15350000023C0406210B3AF
:101970002F77157091F15350000025C00570102786
:10198000515012F45D5F0000115027952C3F10B3A9
:10199000C8F615700127015027952C3FC8F642273D
:1019A000499300B3057010274F73115027952C3FB2
:1019B000A8F64695469510B3157079F001270150A9
:1019C00027952C3F98F66B5A60F3315000B3B0F670
:1019D00000C010E41ABF002717C03B503195C31B4D
:1019E000D04010E41ABF0881033CF9F00B34E9F051
:1019F00020917F001981110F1213EDCF093651F19B
:101A00000D3211F0013E39F7009386003F915F914E
:101A10004F911F910F912F916F91CAB7C6FD68CF5B
:101A2000DF91CF91CFBFCF91189500918600002311
:101A300069F310918400112339F534303AF1309371
:101A4000840000938000109181003BE0311B3093B3
:101A500081001CC0009184000130B4F40AE530918B
:101A6000600034FD14C000936000C4E7D0E013C0F0
:101A7000052710E000C0000002BB1AC0052710E0D7
:101A8000221F1DC010E021C04AE502C032ED432FE5
:101A9000C4E1D0E032E011B31560909A02B311BBFB
:101AA00055E020E865E320FF052702BB2795179541
:101AB0001C3FF0F66695B8F7B1F720FF052702BB8B
:101AC000279517951C3FD0F62795179517FF0527E3
:101AD00000001C3F02BBB0F629913A9519F70A7F26
:101AE00010918500110FC651D04002BB11F0109328
:101AF0007F0010E41ABF016011B31A7F402F4A7FA4
:101B000054E05A95F1F702BB11BB42BB7FCFCFE542
:101B1000D4E0DEBFCDBF8FE388BB82B3806C82BBD5
:101B200085E085BB85B384BB14BE81E08BBF82E0BA
:101B30008BBF86B3992780739070892B09F0CCC135
:101B400080B399279C012074307086FDC5C169015E
:101B500085B7836085BF8BB780648BBF889A2FEF72
:101B6000A89580EA9FE00197F1F72150C9F788987E
:101B700078949091840019160CF02AC1809181000C
:101B8000A4E9B0E0A81BB109935030E060E880916F
:101B900080008D3209F0A7C08AE5809360009830FC
:101BA00009F010C15C91852F8076ED012981882391
:101BB00009F04EC08DE790E030937D00222321F4A0
:101BC00030937E0032E011C0253029F4FD0182817E
:101BD000809385007DC0263051F560ECED018B814E
:101BE000813041F488E398E132E19093830080935F
:101BF00082006EC0823019F486E298E1F5CF83301E
:101C000009F066C0FD018281882321F484E798E110
:101C100034E0EBCF813021F488E598E13CE1E5CF79
:101C2000823009F055C08AE498E13EE0DECF2830EA
:101C300019F487E890E00AC0293029F4ED018A817F
:101C40008093870045C02A3009F042C031E0CDCFF3
:101C5000432F86E690E090938300809382002330A8
:101C600079F4932FED01EC818A81803329F4E370BC
:101C7000FF27EE59FF4F90819093690044E01FC009
:101C8000253011F441E01BC0822F8450863090F43F
:101C9000FD018281938190936D0080936C002930C7
:101CA00071F08681809370008581827080937100CD
:101CB0004FEF05C0223019F481E080936B00342F80
:101CC0004F3F31F457FF02C0ED013E816F777AC07C
:101CD000FD018781882309F075C08681831708F08C
:101CE00071C0382F6FC080916A0087FD6BC08091F2
:101CF0007000891708F4982F891B80937000732F48
:101D0000882309F471E0692F19160CF04DC093E097
:101D1000E92E81E0F82E0091710015E040916C00F1
:101D200050916D00C1E16250CA018F739070892B90
:101D300049F4F894FA01E0925700E895789407B6D0
:101D400000FCFDCFF8948D919D910C01FA01F09269
:101D50005700E895112478949A012E5F3F4FA9010E
:101D6000C9018F739070892B31F01616B4F0772368
:101D7000A1F0002391F0F89422503040F901109323
:101D80005700E8952E5F3F4F789407B600FCFDCFD3
:101D9000F894C0935700E895789416160CF4C3CFC6
:101DA00030936D0020936C00E72FFF273FEFE31780
:101DB00031F4E09361008EE18093600002C0E11194
:101DC00030E060E060936A0030936100109284001C
:101DD0008091600084FF68C0809161008F3F09F4AA
:101DE00063C0082F893008F008E0801B80936100F1
:101DF000CBE480916A0080FDC3EC8F5F80936A0022
:101E0000A5E7B0E087FF1CC0E0918200F09183005D
:101E1000902F915086FF07C09F3F59F084918D937A
:101E200031969150F9CF9F3F21F081918D93915040
:101E3000FACFF0938300E0938200602F772721C0D0
:101E40000023E9F090917000901708F4092F901B7F
:101E5000909370001127A80160916C0070916D0043
:101E6000CD0148D080916C0090916D00800F911F42
:101E700090936D0080936C00602F772702C060E024
:101E800070E0062F693040F485E790E029DD902F5F
:101E90009C5F083028F401C09EE18FEF80936100C1
:101EA000C0937400909360009AE080B3857011F441
:101EB0009150D9F7992321F49093850090937F0056
:101EC00080916B00882309F454CE0894C108D1088E
:101ED000C114D10409F04DCE12BA18BA14BA84B3A1
:101EE00085BBF89481E08BBF1BBEE0917200F0913E
:101EF00073000995FB01DC0102C005900D92415071
:061F00005040D8F70895DF
:061F06005AFF1E930700C4
:0400000300001800E1
:00000001FF
