:1018000042C079C05AC059C058C057C056C055C010
:1018100054C053C052C051C050C04FC04EC04DC044
:101820004CC04BC04AC049C048C047C046C045C074
:1018300044C043C0090212000101008032090400C3
:1018400000000000000012011001FF000008C01697
:10185000DC050201010200010E03550053004200A5
:101860006100730070001C037700770077002E0082
:10187000660069007300630068006C002E0064005D
:1018800065000403090411241FBECFEFD4E0DEBFBE
:10189000CDBF11E0A0E0B1E0ECE8FFE102C00590AF
:1018A0000D92A630B107D9F711E0A6E0B1E001C072
:1018B0001D92AE33B107E1F76DC1A2CFA82FB92FAA
:1018C0008FEF9FEF41E050EA615070F02D9138E0CA
:1018D000722F782796958795269570FF02C08427EA
:1018E00095273A95A9F7F0CF809590950895E6DF72
:1018F0008D939D930895CF93CFB7CF93489BFECF01
:10190000489B09C0489B07C0489B05C0489B03C033
:10191000489B01C0A1C0DF93C0912101DD27C85DB4
:10192000DE4F489B02C0DF91EBCF2F930F931F93A5
:1019300009B12FEF00FB20F94F933F9319B14FEFFF
:10194000012700FB21F93BE031C04E7F012F19B187
:10195000216028C0102F4D7F2260000009B129C0EE
:101960004B7F2460012F000019B12BC019B1477FB4
:1019700028602AC04F7E09B120612CC04F7D19B16B
:1019800020622FC04F7B09B1206432C0422709B1C9
:1019900049934FEF0000102710FB20F919B1157083
:1019A000C9F1297F91F2012700FB21F909B1237FB9
:1019B00089F2315058F1102710FB22F919B1277E16
:1019C00079F2012700FB23F92F7C81F209B110275E
:1019D00010FB24F92F7971F200C019B1012700FB27
:1019E00025F92F7359F200C009B1102710FB26F911
:1019F000223040F200C019B1012700FB27F9243042
:101A000028F64F77206819B10000F9CF11E01CBB10
:101A1000002717C03B503195C31BD04011E01CBBC1
:101A20000881033CE9F00B34D9F020911F011981A2
:101A3000110F1213EDCF093641F10D3211F0013EB5
:101A400039F7009326013F914F911F910F912F91EC
:101A5000DF91CCB3C0FD52CFCF91CFBFCF911895BE
:101A600000912601002379F310912401112349F5F7
:101A700034304AF130932401009320011091210168
:101A80003BE0311B309321011EC000912401013045
:101A9000C4F40AE53091000134FD17C00093000141
:101AA000C4E1D1E016C0052710E00BB91FC005271F
:101AB00022C0052727C005272CC0052710E00BB939
:101AC00033C04AE503C042ED01C0432FC4E1D0E07A
:101AD00032E01AB11560589A0BB11AB95F9355E00C
:101AE00020E820FF05270BB9279517951C3FD8F64E
:101AF00020FF052727950BB917951C3FC0F620FF3F
:101B00000527279517950BB91C3F98F620FF052749
:101B1000279517951C3F0BB970F600C0499120FF1F
:101B200005270BB9279517951C3F38F620FF052789
:101B300027950BB917951C3F38F520FF05272795EA
:101B400017950BB91C3F10F520FF05272795179512
:101B50001C3F0BB9E8F4242F3A9519F60A7F5F91E0
:101B60000BB910912501110FC651D04011F01093FF
:101B70001F0111E01CBB01601AB11A7F402F4A7F80
:101B80000BB91AB94BB95FCF0527D3CF0527D8CFEB
:101B90000527DDCFCFEFD4E0DEBFCDBF8FE385B922
:101BA0008BB1806C8BB985E088B988B187B914BED8
:101BB00081E085BF82E085BF83B1992780739070F3
:101BC000892B09F0CCC189B199279C012074307010
:101BD00086FDC5C1690180916900836080936900B9
:101BE000E89A509A2FEFA89588EB9BE00197F1F7C0
:101BF0002150C9F7509878949091240119160CF04F
:101C00002AC180912101A4E3B1E0A81BB10993503E
:101C100030E060E8809120018D3209F0A7C08AE5AC
:101C200080930001983009F010C15C91852F807677
:101C3000ED012981882309F04EC08DE191E03093B8
:101C40001D01222321F430931E0132E011C0253002
:101C500029F4FD018281809325017DC0263051F554
:101C600060ECED018B81813041F486E498E132E152
:101C700090932301809322016EC0823019F484E393
:101C800098E1F5CF833009F066C0FD018281882399
:101C900021F482E898E134E0EBCF813021F486E64C
:101CA00098E13CE1E5CF823009F055C088E598E144
:101CB0003EE0DECF283019F487E291E00AC02930F7
:101CC00029F4ED018A818093270145C02A3009F06B
:101CD00042C031E0CDCF432F86E091E090932301C5
:101CE00080932201233079F4932FED01EC818A81D6
:101CF000803329F4E370FF27EE5FFE4F90819093CD
:101D0000090144E01FC0253011F441E01BC0822FBF
:101D10008450863090F4FD018281938190930D016F
:101D200080930C01293071F08681809310018581A8
:101D30008270809311014FEF05C0223019F481E0C9
:101D400080930B01342F4F3F31F457FF02C0ED0158
:101D50003E816F777AC0FD018781882309F075C0C5
:101D60008681831708F071C0382F6FC080910A01F7
:101D700087FD6BC080911001891708F4982F891B8B
:101D800080931001732F882309F471E0692F1916CD
:101D90000CF04DC093E0E92E81E0F82E0091110186
:101DA00015E040910C0150910D01C1E16250CA0152
:101DB0008F739070892B49F4F894FA01E0925700E0
:101DC000E895789407B600FCFDCFF8948D919D912D
:101DD0000C01FA01F0925700E895112478949A01C9
:101DE0002E5F3F4FA901C9018F739070892B31F08D
:101DF0001616B4F07723A1F0002391F0F894225046
:101E00003040F90110935700E8952E5F3F4F7894CA
:101E100007B600FCFDCFF894C0935700E89578947E
:101E200016160CF4C3CF30930D0120930C01E72F4D
:101E3000FF273FEFE31731F4E09301018EE1809338
:101E4000000102C0E11130E060E060930A013093CC
:101E50000101109224018091000184FF68C08091EB
:101E600001018F3F09F463C0082F893008F008E0B2
:101E7000801B80930101CBE480910A0180FDC3ECBB
:101E80008F5F80930A01A5E1B1E087FF1CC0E0915C
:101E90002201F0912301902F915086FF07C09F3FB0
:101EA00059F084918D9331969150F9CF9F3F21F055
:101EB00081918D939150FACFF0932301E093220109
:101EC000602F772721C00023E9F09091100190172F
:101ED00008F4092F901B909310011127A80160911D
:101EE0000C0170910D01CD0148D080910C019091B1
:101EF0000D01800F911F90930D0180930C01602FB5
:101F0000772702C060E070E0062F693040F485E179
:101F100091E0EDDC902F9C5F083028F401C09EE139
:101F20008FEF80930101C0931401909300019AE018
:101F300089B1857011F49150D9F7992321F49093C8
:101F4000250190931F0180910B01882309F454CE41
:101F50000894C108D108C114D10409F04DCE1BB8B2
:101F600015B817B887B188B9F89481E085BF15BE58
:101F7000E0911201F09113010995FB01DC0102C00F
:0C1F800005900D9241505040D8F7089594
:061F8C005AFF1E930A003B
:0400000300001800E1
:00000001FF
