:101800003BC072C053C052C051C050C04FC04EC048
:101810004DC04CC04BC04AC049C048C047C046C07C
:1018200045C044C043C009021200010100803209D2
:10183000040000000000000012011001FF00000879
:10184000C016DC050201010200010E035500530021
:1018500042006100730070001C037700770077007E
:101860002E00660069007300630068006C002E00A3
:10187000640065000403090411241FBECFE5D4E011
:10188000DEBFCDBF10E0A0E6B0E0EEE7FFE102C0B2
:1018900005900D92A636B107D9F710E0A6E6B0E0A4
:1018A00001C01D92AE39B107E1F76DC1A9CFA82FD4
:1018B000B92F8FEF9FEF41E050EA615070F02D910A
:1018C00038E0722F782796958795269570FF02C08D
:1018D000842795273A95A9F7F0CF8095909508959C
:1018E000E6DF8D939D930895CF93CFB7CF93809BE1
:1018F000FECF809B09C0809B07C0809B05C0809B5A
:1019000003C0809B01C0A1C0DF93C0918100DD278F
:10191000C857DF4F809B02C0DF91EBCF2F930F930F
:101920001F9300B32FEF00FB20F94F933F9310B3A9
:101930004FEF012700FB21F93BE031C04E7F012F23
:1019400010B3216028C0102F4D7F2260000000B32B
:1019500029C04B7F2460012F000010B32BC010B3AF
:10196000477F28602AC04F7E00B320612CC04F7D86
:1019700010B320622FC04F7B00B3206432C04227D7
:1019800000B349934FEF0000102710FB20F910B36C
:101990001570C9F1297F91F2012700FB21F900B3ED
:1019A000237F89F2315058F1102710FB22F910B330
:1019B000277E79F2012700FB23F92F7C81F200B307
:1019C000102710FB24F92F7971F200C010B3012702
:1019D00000FB25F92F7359F200C000B3102710FB4C
:1019E00026F9223040F200C010B3012700FB27F98E
:1019F000243028F64F77206810B30000F9CF10E4A8
:101A00001ABF002717C03B503195C31BD04010E4CC
:101A10001ABF0881033CE9F00B34D9F020917F0014
:101A20001981110F1213EDCF093641F10D3211F06A
:101A3000013E39F7009386003F914F911F910F911E
:101A40002F91DF91CAB7C6FD52CFCF91CFBFCF91B3
:101A5000189500918600002379F3109184001123DA
:101A600049F534304AF1309384000093800010919E
:101A700081003BE0311B309381001EC00091840047
:101A80000130C4F40AE53091600034FD17C00093C2
:101A90006000C4E7D0E016C0052710E002BB1FC0FD
:101AA000052722C0052727C005272CC0052710E0E1
:101AB00002BB33C04AE503C042ED01C0432FC4E17D
:101AC000D0E032E011B31560909A02B311BB5F937E
:101AD00055E020E820FF052702BB279517951C3FFE
:101AE000D8F620FF0527279502BB17951C3FC0F6A7
:101AF00020FF05272795179502BB1C3F98F620FF6E
:101B00000527279517951C3F02BB70F600C0499129
:101B100020FF052702BB279517951C3F38F620FFAD
:101B20000527279502BB17951C3F38F520FF052791
:101B30002795179502BB1C3F10F520FF0527279519
:101B400017951C3F02BBE8F4242F3A9519F60A7F3B
:101B50005F9102BB10918500110FC651D04011F06A
:101B600010937F0010E41ABF016011B31A7F402F59
:101B70004A7F02BB11BB42BB5FCF0527D3CF0527EE
:101B8000D8CF0527DDCFCFE5D4E0DEBFCDBF8FE3D3
:101B900088BB82B3806C82BB85E085BB85B384BB88
:101BA00014BE81E08BBF82E08BBF86B39927807320
:101BB0009070892B09F0CCC180B399279C012074C7
:101BC000307086FDC5C1690185B7836085BF8BB75D
:101BD00080648BBF889A2FEFA89588EB9BE00197D4
:101BE000F1F72150C9F788987894909184001916DC
:101BF0000CF02AC180918100A4E9B0E0A81BB109D2
:101C0000935030E060E8809180008D3209F0A7C0E9
:101C10008AE580936000983009F010C15C91852FAF
:101C20008076ED012981882309F04EC08DE790E090
:101C300030937D00222321F430937E0032E011C0E6
:101C4000253029F4FD018281809385007DC02630F6
:101C500051F560ECED018B81813041F488E398E12E
:101C600032E190938300809382006EC0823019F439
:101C700086E298E1F5CF833009F066C0FD018281EC
:101C8000882321F484E798E134E0EBCF813021F41C
:101C900088E598E13CE1E5CF823009F055C08AE45F
:101CA00098E13EE0DECF283019F487E890E00AC0E2
:101CB000293029F4ED018A818093870045C02A30BC
:101CC00009F042C031E0CDCF432F86E690E09093FB
:101CD000830080938200233079F4932FED01EC810F
:101CE0008A81803329F4E370FF27EE59FF4F9081FA
:101CF0009093690044E01FC0253011F441E01BC0FF
:101D0000822F8450863090F4FD01828193819093DC
:101D10006D0080936C00293071F086818093700093
:101D200085818270809371004FEF05C0223019F4D5
:101D300081E080936B00342F4F3F31F457FF02C096
:101D4000ED013E816F777AC0FD018781882309F01C
:101D500075C08681831708F071C0382F6FC08091DD
:101D60006A0087FD6BC080917000891708F4982F76
:101D7000891B80937000732F882309F471E0692F09
:101D800019160CF04DC093E0E92E81E0F82E009179
:101D9000710015E040916C0050916D00C1E16250FE
:101DA000CA018F739070892B49F4F894FA01E0927C
:101DB0005700E895789407B600FCFDCFF8948D9114
:101DC0009D910C01FA01F0925700E8951124789446
:101DD0009A012E5F3F4FA901C9018F739070892B23
:101DE00031F01616B4F07723A1F0002391F0F894A7
:101DF00022503040F90110935700E8952E5F3F4F75
:101E0000789407B600FCFDCFF894C0935700E8958E
:101E1000789416160CF4C3CF30936D0020936C00A9
:101E2000E72FFF273FEFE31731F4E09361008EE1E6
:101E30008093600002C0E11130E060E060936A00CE
:101E400030936100109284008091600084FF68C02C
:101E5000809161008F3F09F463C0082F893008F03A
:101E600008E0801B80936100CBE480916A0080FDD4
:101E7000C3EC8F5F80936A00A5E7B0E087FF1CC0CA
:101E8000E0918200F0918300902F915086FF07C06F
:101E90009F3F59F084918D9331969150F9CF9F3F98
:101EA00021F081918D939150FACFF0938300E093CC
:101EB0008200602F772721C00023E9F09091700005
:101EC000901708F4092F901B909370001127A80118
:101ED00060916C0070916D00CD0148D080916C00D4
:101EE00090916D00800F911F90936D0080936C0016
:101EF000602F772702C060E070E0062F693040F461
:101F000085E790E0EDDC902F9C5F083028F401C05D
:101F10009EE18FEF80936100C09374009093600006
:101F20009AE080B3857011F49150D9F7992321F488
:101F30009093850090937F0080916B00882309F433
:101F400054CE0894C108D108C114D10409F04DCE73
:101F500012BA18BA14BA84B385BBF89481E08BBF67
:101F60001BBEE0917200F09173000995FB01DC014A
:0E1F700002C005900D9241505040D8F70895E0
:061F7E005AFF1E9307004C
:0400000300001800E1
:00000001FF
